:020000022000DC
:1070000000000420757302005D7302005F730200CC
:1070100061730200637302006573020000000000E8
:107020000000000000000000000000006773020084
:1070300069730200000000006B7302006D730200B0
:10704000E5B902006F730200B9BF02006F7302005E
:107050006F7302006F730200B1BE02006F73020013
:107060006F7302006F7302006F7302006F73020090
:107070006F7302006F7302006F7302006F73020080
:107080006F730200059702006F7302006F730200B6
:107090006F7302006F73020095F802006F730200B5
:1070A0006F7302006F7302006F7302006F73020050
:1070B0006F7302006F730200000000000000000008
:1070C0006F7302006F7302006F7302006F73020030
:1070D0006F7302006F7302006F7302006F73020020
:1070E0006F7302006F7302006F73020000000000F4
:1070F000000000006F730200000000006F730200C8
:10710000000000000000000000000000000000007F
:10711000000000000000000000000000000000006F
:10712000000000000000000000000000000000005F
:10713000000000000000000000000000000000004F
:10714000000000000000000000000000000000003F
:10715000000000000000000000000000000000002F
:10716000000000000000000000000000000000001F
:10717000000000000000000000000000000000000F
:1071800000000000000000000000000000000000FF
:1071900000000000000000000000000000000000EF
:1071A00000000000000000000000000000000000DF
:1071B00000000000000000000000000000000000CF
:1071C00000000000000000000000000000000000BF
:1071D00000000000000000000000000000000000AF
:1071E000000000000000000000000000000000009F
:1071F000000000000000000000000000000000008F
:10720000354936480A1A02D0072291438D4634493F
:1072100034480A1A06D00722914381F309880222D2
:1072200082F3148830483149314A00F044F831483B
:107230003149324A00F03FF831483249324A00F0D1
:107240003AF832483249334A00F035F83248334987
:10725000334A00F030F833483349344A00F02BF811
:1072600033483449344A00F026F83448344900227F
:1072700000F02CF833483449002200F027F8334856
:107280003349091A082902DB002202604160314AB1
:1072900090471F481F49884205D00268043003B454
:1072A000904703BCF7E700208646EC46002000210B
:1072B000294A9047FEE7884207D0521A05D0037842
:1072C00001300B700131013AF9D17047884202D088
:1072D00002700130FAE770470000042000E003204C
:1072E00000000420000004209420030008A20020D5
:1072F000B8DC0020D0730200D073020088FF0200C7
:107300009420030008A2002008A2002050010300DE
:10731000500103005001030050010300500103001D
:1073200050010300500103005001030094200300AA
:10733000445B0300B8DC0020B8DC0020B8DC00208F
:10734000E5EF0020E8EF0020E8EF0020E8EF002064
:10735000E80F01209D730200FDC80200FEE7FEE772
:10736000FEE7FEE7FEE7FEE7FEE7FEE7FEE7FEE7F5
:1073700000F002B8FFF7FCBF0F484FF00701884349
:1073800085460E4880470E48016841F4700101604F
:10739000BFF34F8FBFF36F8FFFF732BF09480A4922
:1073A0000A4A884207D0521A05D0037801300B7080
:1073B0000131013AF9D1704700000420D1B1020037
:1073C00088ED00E05001030008A2002008A2002080
:1073D00000B585B00190019B002B0AD0074B43F00C
:1073E00001030393019B9B010293039B029898471F
:1073F00000E000BF05B05DF804FB00BF60010300C2
:1074000000B583B00190019B002B0AD04FF47A7035
:10741000FFF7DEFF019B013B0193019B002BF5D1A0
:1074200000E000BF03B05DF804FB08B505F0E2FB27
:1074300000BF08BD00B589B0039002910192019B85
:10744000002B33D00023079303230693029A079B54
:107450001344019A1946002005F07CFB0590079A19
:10746000059B13440793019A059BD31A0193059B2F
:10747000002B13D10F4B1B7883F00103DBB2002BE1
:1074800013D10120FFF7BCFF069B013B0693069B2F
:10749000002B03D1074B00221A7007E0054B012295
:1074A0001A70019B002BD1D100E000BF00BF09B0D2
:1074B0005DF804FBB8DC002000B585B003900291B4
:1074C000054B00934023054A0299039800F012F8F7
:1074D00000BF05B05DF804FB35740200BCDC002081
:1074E00082B0019000BF02B0704782B0019000BF2F
:1074F00002B0704700B5A1B00590049103920293C9
:10750000049802F0AFFF039B1593029B1693002390
:10751000179300238DF8603000231993229B1A9350
:1075200000231F930FA91F9B0822049803F074F8EF
:1075300008231F93119B1293BDF84030ADF84C30D7
:10754000BDF84230ADF84E3000238DF851309DF833
:107550003C3003F00303DBB2012B26D10F9BC3F3B6
:1075600095231C939DF83C30C3F3C203DBB28DF826
:107570005030BDF83C30C3F38313DBB21B931B9B2D
:107580009A0009A91F9B049803F046F81B9B9B00D7
:107590001F9A13441F9312AA09A915AB009313460F
:1075A0001B9A1C9800F000FF2FE09DF83C3003F080
:1075B0000303DBB2022B28D1BDF83E30C3F389139D
:1075C0009BB21E939DF83C30C3F3C203DBB28DF82F
:1075D00050301E9B082B28BF08231D9307A91F9B13
:1075E0001D9A049803F018F81F9A1D9B13441F93CB
:1075F0001E9A1D9BD31A1E9315AB12AA07A81D999C
:1076000000F074FF1E9B002BE3D1049802F039FFB9
:1076100000BF21B05DF804FB82B00190019BDB68E4
:1076200001225A7100BF02B07047000000B583B05C
:107630004FF0FF330193FFF7F8FE0421084800F0F4
:10764000CFFD0190019B002B03DA0649412004F095
:10765000D5FC0348FFF7E0FF00BF03B05DF804FB73
:10766000400103007801030000B583B00190009150
:10767000019B1B681B6800990198984700BF03B0E5
:107680005DF804FB00B583B00190019B1B685B684B
:107690000198984700BF03B05DF804FB00B583B0C4
:1076A0000190019B1B689B680198984700BF03B03D
:1076B0005DF804FB82B001900B468DF80330019B0E
:1076C000DB689DF803201A7100BF02B0704782B0DA
:1076D0000190019BDB681B79184602B0704782B0AD
:1076E0000190019BDB6801225A7100BF02B0704714
:1076F00082B00190019BDB685B79184602B070474D
:1077000000B585B0019000910C4B00221A700C4816
:1077100002F00CFE0390039B002B01D0039B08E0BA
:10772000084803F013FA084A084BD31ADB080293FF
:107730000023184605B05DF804FB00BF64DE00209E
:107740002C000300E40103002C00030094FF02005E
:10775000024A034BD31ADB08184670472C0003007B
:1077600094FF020000B587B001900B468DF80330FE
:107770009DF80330002B1FD0FFF7EAFF0490002391
:10778000059313E0059B9B000E4A13440393039B50
:107790001B881A46019B1B689A4204D1019B059ADB
:1077A0001A60002309E0059B01330593059A049BA9
:1077B0009A42E7D3052300E00023184607B05DF89E
:1077C00004FB00BF08A2002000B585B001900B4665
:1077D0008DF803309DF8032001AB11461846FFF7E2
:1077E000C1FF0346002B07D1019BDB00054A134470
:1077F0000393039B1B6800E00023184605B05DF867
:1078000004FB00BF94FF020084B001900B468DF88A
:107810000330019BDB00174A134402939DF80330A9
:10782000013B032B1CD801A252F823F03D78020043
:10783000457802004D7802005778020002238DF847
:107840000F3011E004238DF80F300DE0029B1B79FF
:107850008DF80F3008E0029B5B798DF80F3003E064
:1078600000238DF80F3000BF9DF80F30184604B08C
:10787000704700BF94FF020084B001900091002384
:107880008DF80F30019B1B7803F00403DBB2002B53
:1078900024D0019B1B78C3F30103DBB2012B02D080
:1078A000022B0CD017E0009B1B68019A1288C2F3D0
:1078B0008312D2B213449A1C009B1A600BE0009B07
:1078C0001B68019A5288C2F3891292B213449A1C1F
:1078D000009B1A6000BF01238DF80F309DF80F3018
:1078E000184604B07047000000B58BB00023ADF817
:1078F00026303E4802F026F83D4802F023F83D4B82
:107900009B6804933C4B1B680693049A069B1340A8
:1079100002339B00374A13440433089304AB1946DF
:107920000898FFF7A9FF0346002B09D0049A069B8D
:10793000134002339B002F4A134404330893EDE7AE
:1079400000BF0023079311E0049B5A1C0492069A7F
:107950001340079A920001A90A44264902339B006A
:107960000B445B681360079B01330793079B012B54
:10797000EAD99DF80430C3F30103DBB2012B10D028
:10798000022B1CD1BDF80A30ADF82630BDF8063008
:10799000C3F389139BB203339A08049B13440493E3
:1079A00013E0BDF80A30ADF82630BDF80430C3F35B
:1079B0008313DBB21A46049B1344049305E00F497A
:1079C0004FF4C27004F01AFB00BF094801F0C6FF73
:1079D0000590059B002B02D0049B064A9360BDF8DE
:1079E000263018460BB05DF804FB00BF7CE2002097
:1079F00078E2002064DE002010A20020F4010300E1
:107A000000B585B00021074801F025FF0390039BD6
:107A10000293029B83F310030193019B184605B068
:107A20005DF804FB80E2002000B589B0039002916C
:107A300001920093039B1B0C0793FFF7E1FF069055
:107A4000FFF786FE0246079B934204D3214940F28A
:107A5000A91004F0D3FA069B1904009B5A1C0A9B38
:107A60001340079A0A431C4902339B000B445A6097
:107A7000009A0A9B134002339B00174A13440433B5
:107A80000593039B03F00703D9B2059A137861F3BA
:107A9000C5031370019B03F00F03D9B2059A138835
:107AA00061F389131380029BC3F31501059A1368D0
:107AB00061F39F231360059A1378012161F3010399
:107AC0001370059A13786FF38203137000BF09B027
:107AD0005DF804FBF401030064DE002000BF704782
:107AE00000B58DB00390029113468DF80730039BCB
:107AF00002330A9301238DF8273000238DF81B30C1
:107B00000DF11B03184601F0FBF9404B5A68029B2C
:107B10001A603F4B1A683D4B99683C4B5B68CB1A27
:107B2000134401330B9314E001213A4801F0DAFECB
:107B3000FFF7DAFE07900799364801F0D3FE344B81
:107B40001A68324B9968314B5B68CB1A1344013386
:107B50000B930A9A0B9B9A42E6D89DF82730002B8C
:107B600048D0002305939DF80730002B17D09DF8CF
:107B70001430012262F301038DF814309DF81430A3
:107B800043F004038DF81430039B03F00F03DAB2C3
:107B9000BDF8143062F38913ADF8143016E09DF887
:107BA0001430022262F301038DF814309DF8143072
:107BB00043F004038DF81430039BC3F309039AB216
:107BC000BDF8163062F38F13ADF816300F4B5A68BC
:107BD0000F4B1B68134002339B000C4A13440433C1
:107BE0000893059A089B1A60084B5A680A9B13442D
:107BF000064A53609DF81B30184601F097F99DF82E
:107C0000273018460DB05DF804FB00BF64DE00208D
:107C100010A2002080E2002000B58BB005900491F6
:107C200003920293204B1B68079306AB012219466F
:107C30000298FFF755FF0346002B24D0069B023322
:107C400009930023089311E0089B9B00039A1A44B0
:107C5000099B591C099107990B401268134902337B
:107C60009B000B445A60089B01330893089A029BBF
:107C70009A42E9D3069A079B00931346029A049905
:107C80000598FFF7D1FE094B1B78002B05D000BFEC
:107C900000F09CF80346002BFAD1FFF71FFF00BF4E
:107CA0000BB05DF804FB00BF10A2002064DE0020D2
:107CB00000B583B001900091002300220099019843
:107CC000FFF7AAFF00BF03B05DF804FB00B587B063
:107CD000039002910192019B059305AA0123029949
:107CE0000398FFF799FF00BF07B05DF804FB00B5EC
:107CF00087B00390029101920093019B0493009B33
:107D0000059304AA022302990398FFF785FF00BF99
:107D100007B05DF804FB00B589B0039002910192B1
:107D20000093019B0593009B06930A9B079305AA6A
:107D3000032302990398FFF76FFF00BF09B05DF8B6
:107D400004FB00B58BB00390029101920093019B5C
:107D50000593009B06930C9B07930D9B08930E9B2A
:107D6000099305AA052302990398FFF755FF00BF61
:107D70000BB05DF804FB00B58BB00390029101924B
:107D80000093019B0493009B05930C9B06930D9B12
:107D900007930E9B08930F9B099304AA062302994D
:107DA0000398FFF739FF00BF0BB05DF804FB00003C
:107DB000054B9A68044B5B689A420CBF0123002371
:107DC000DBB21846704700BF64DE002000B599B0F2
:107DD000FFF7EEFF0346002B01D00023C0E19B4BD1
:107DE0000022C3F81824BFF34F8F00BF974B9B6846
:107DF0000493974B1B681093049A109B1340023313
:107E00009B00924A134404331193002317930023D9
:107E1000169300230F9304AB19461198FFF72CFD1E
:107E20000346002B19D0894BD3F81834002B14D1FA
:107E3000864B5A68049B9A4205D8844B5B68834AF8
:107E4000936000238CE1049A109B134002339B0043
:107E50007E4A134404331193DDE70023159311E0A8
:107E6000049B5A1C0492109A1340159A920001A97F
:107E70000A44764902339B000B445B681360159BF0
:107E800001331593159B012BEAD99DF8043003F0BB
:107E90000303DBB2022B40F09C80BDF80630C3F335
:107EA00089139BB20D93BDF80630C3F389139BB2BF
:107EB000502B28BF50239BB20C930C9BC3F3090398
:107EC0009AB2BDF8063062F38F13ADF806300C9B02
:107ED00008330B939DF80430C3F3C203DBB20F9356
:107EE0000B995C4802F02DFA1790179B002B00F0BD
:107EF000D380179802F0B6FA01A9169B08221798AA
:107F000002F06CFB169B08331693049BDA43109B1C
:107F1000134001339B000A930C9A0A9B9A4242D960
:107F20000A9B002B08D0049A109B134002339B003D
:107F3000464A1344043300E0474B08930A9B002B46
:107F400002D00A9BDBB201E00C9BDBB28DF81F3044
:107F50000A9B002B01D0404B00E0002306930A9BB4
:107F6000002B06D00C9BDAB20A9BDBB2D31ADBB231
:107F700000E000238DF817309DF81F20169B08990C
:107F8000179802F02BFB9DF81F30169A1344169396
:107F9000069B002B16D09DF81720169B0699179864
:107FA00002F01CFB0EE0049A109B134002339B006E
:107FB000264A134404330993169B0C9A099917987F
:107FC00002F00CFB0D9B03339A08049B13440493AB
:107FD00062E09DF8043003F00303DBB2012B5BD1B8
:107FE000BDF80430C3F38313DBB2062B28BF06238E
:107FF000DAB2BDF8043062F38913ADF80430BDF88D
:108000000430C3F38313DBB202330E939DF80430C4
:10801000C3F3C203DBB20F930E9B9B0019460D48BE
:1080200002F08FF91790179B002B35D0179802F0AC
:1080300019FA01A9169B0822179802F0CFFA169B8D
:1080400008331693002315931DE000BF64DE002063
:1080500010A200202C00030070DE0020049B5A1C9C
:108060000492109A134002339B003F4A1344191D97
:10807000169B0422179802F0B1FA169B043316934C
:10808000159B01331593BDF80430C3F38313DBB2A2
:108090001A46159B9342E1D3179B002B40D0324BDD
:1080A000D3F810341493304BD3F81834002B1BD072
:1080B000179802F0E6F94DE000238DF84F30149840
:1080C000FFF716FB0346002B02D001238DF84F303B
:1080D0009DF84F30002B03D017991498FFF7C4FA7E
:1080E000149BDB681B681493149B002BE4D1179836
:1080F00002F0C7F900238DF803300DF10303184691
:1081000000F0FEFE184BD3F81834002B02D1049B6C
:10811000154A93609DF80330184600F007FF19E0F8
:10812000114BD3F81034129306E01298FFF7B6FA09
:10813000129BDB681B681293129B002BF5D10B4A34
:108140000B4BD31ADB081B0443F002030949184602
:10815000FFF7AEFDFFF72CFE034683F00103DBB211
:10816000184619B05DF804FB64DE0020BCFF020075
:1081700094FF02005802030000B585B0002303936A
:1081800023E0164BD3F81034029301238DF8073007
:108190000FE00298FFF79BFA03461A46039B9342AF
:1081A00003D100238DF8073006E0029BDB681B68D3
:1081B0000293029B002BECD19DF80730002B01D0DD
:1081C000039B07E0039B01330393039B092BD8DD3B
:1081D0004FF0FF33184605B05DF804FB64DE002065
:1081E00000B585B001900B468DF80330FFF7C4FF52
:1081F0000390039BB3F1FF3F01D1039B22E0039B5C
:10820000DBB219460198FFF755FA104BD3F810343A
:10821000002B08D10D4A019BC2F81034019BDB688A
:1082200000221A600DE0094BD3F81034DA68019B84
:10823000DB6812681A60054BD3F81034DB68019ACA
:108240001A60039B184605B05DF804FB64DE00204D
:1082500000B583B00C4BD3F8103401930A4B0122C4
:108260001A7009E00198FFF73AFA0198FFF70AFA45
:10827000019BDB681B680193019B002BF2D100BFBF
:1082800000BF03B05DF804FB64DE002082B0019003
:10829000009100BF02B0704710B584B00390029106
:1082A000039BDB88002B0AD0039BDB881A461F4BFD
:1082B000009313461E4A1F49029801F08BFC039B52
:1082C0001B7A052B2ED0039B5B7A002B12D0039BCD
:1082D0009B881A46039B1B7A19461046FFF794FAAF
:1082E00003461A46144B53F822301A461349029893
:1082F00001F070FC039B1B6819460298FFF7C6FF4C
:10830000039B1B7A1A460E4B53F82240039B9B8813
:1083100000211846FFF758FA0346224609490298F9
:1083200001F058FC00BF04B010BD00BF8C02030078
:108330009C020300D402030028A20020EC020300E8
:1083400014A20020F002030000B585B00390029152
:1083500013468DF80730039B1B7A052B0FD0039B28
:108360005B7A002B06D00D4B1B681A460C4902980D
:1083700001F030FC0B49029801F02CFC07E09DF85D
:108380000730002B03D00749029801F023FC029824
:1083900001F0FEFB00BF05B05DF804FB28A2002041
:1083A000EC020300FC02030030B58BB0079006918D
:1083B000059204930E9B1B7B8DF827300E9B0022A9
:1083C0001A730E990498FFF767FF059B062B7FD859
:1083D00001A252F823F000BFF5830200FF830200E0
:1083E0000F84020023840200418402006984020099
:1083F0009984020007990E9801F0ECFB69E0069B56
:108400001B681A4607990E9801F0E4FB61E0069B91
:108410001A68069B04331B6807990E9801F0DAFB73
:1084200057E0069B1A68069B04331968069B0833BD
:108430001B6800930B4607990E9801F0CBFB48E0B0
:10844000069B1968069B04331868069B08331B6853
:10845000069A0C3212680192009303460A46079965
:108460000E9801F0B7FB34E0069B1868069B0433B6
:108470001C68069B08331B68069A0C321268069922
:108480001031096802910192009323460246079930
:108490000E9801F09FFB1CE0069B1C68069B0433B2
:1084A0001D68069B08331B68069A0C3212680699F1
:1084B0001031096806981430006803900291019207
:1084C00000932B46224607990E9801F083FB00E0AB
:1084D00000BF00220E990498FFF736FF0E9B9DF80F
:1084E00027201A7300BF0BB030BD00BF00B587B0A6
:1084F0000390029101920093029B082B60D8009B8D
:108500001B7B8DF81330009B00221A730099019891
:10851000FFF7C2FE0023059314E0059A029B9A42DE
:1085200009D2039A059B13441B781A4626490098E2
:1085300001F050FB03E02549009801F04BFB059B3F
:1085400001330593059B072BE7D92149009801F0DA
:1085500041FB0023059326E0059A029B9A421BD219
:10856000039A059B13441B788DF812309DF8123046
:108570007E2B0AD89DF81230184607F037FC0346C8
:10858000002B02D09DF8123000E02E231A4611492C
:10859000009801F01FFB03E00F49009801F01AFB5F
:1085A000059B01330593059B072BD5D90122009923
:1085B0000198FFF7C9FE009B9DF813201A7300E095
:1085C00000BF07B05DF804FB0003030008030300CD
:1085D0000C030300100303001403030086B0039090
:1085E0000291019201238DF817309DF81730204A2F
:1085F000039B13601E4A029B53601D4A019B9360BC
:10860000039B44F20102934212D0039B44F2020204
:10861000934220D1019B164AD360154BDB681B683F
:10862000134A9361124BDB685B68114AD36112E015
:10863000019B0F4A13610E4B1B699B680C4A5361E7
:108640000B4B1B691B680A4A9361094B1B695B68EA
:10865000074AD36100BF72B600BF00BF9DF8173054
:10866000DBB2002BFAD162B600BF00BF06B0704784
:1086700084E2002000B583B002900091019244F2A0
:10868000010071466A4600F003F803B000BD00BF68
:1086900030B58BB007900691059272B600BFFFF718
:1086A000D7FD00BFFFF792FB0346002BFAD1079BD3
:1086B00044F2020293422FD0079B44F202029342FB
:1086C00069D8079B44F20102934237D0079B44F2DA
:1086D000010293425FD8079B012B05D0079B41F213
:1086E000010293420CD056E0394A3A4BD31ADB08C8
:1086F0001B0443F0010338491846FFF7D9FA57E045
:10870000334A344BD31ADB081B0443F001033349CB
:108710001846FFF7CDFA4BE0059B09932C4A2D4BE9
:10872000D31ADB081B0443F00100099B5B681A465F
:10873000099B1B682A49FFF7DAFA39E0059B089381
:10874000234A244BD31ADB081B0443F00104089B83
:108750009D68089B9B68184602F018FB0346184664
:10876000089B5B681946089B1B68069A0292019356
:10877000009103462A461B492046FFF7E2FA144AB5
:10878000144BD31ADB081B0443F0010316491846A7
:10879000FFF78EFA0CE00E4A0E4BD31ADB081B04CF
:1087A00043F00103069A11491846FFF78FFA00BFFC
:1087B0000F4B1B6803F00103002B00D000BE059A8D
:1087C00006990798FFF70AFF00BF0BB030BD00BF46
:1087D000BCFF020094FF020080030300A00303001B
:1087E000C4030300E0030300080403001C040300A7
:1087F000F0ED00E02DE9F04383B0144800F075FF80
:10880000034600221C461546114BD3E9002314EB06
:10881000020845EB0309CDE900890E4BD3E900239B
:10882000DDE90001904271EB030307D2DDE900238B
:1088300012F1807643F10007CDE90067DDE90023FE
:108840001046194603B0BDE8F08300BF4CA20020DB
:10885000B0E20020B8E2002088B001900091019BB6
:108860000793009B0693079BD3E90223CDE90423DA
:10887000069BD3E90223CDE90223DDE90423DDE9E8
:108880000201904271EB03032CBF01230023DBB2F2
:10889000184608B070470000F0B585B00190019B04
:1088A0005B69002B03D14349A52003F0A7FB0023FC
:1088B0008DF80F30404B1B78002B75D0019B002B9F
:1088C00072D0FFF797FF019BD3E90223904271EB2F
:1088D000030358D300238DF80D300DF10D03184616
:1088E00000F00EFB019B1B69002B06D101994FF094
:1088F000FF324FF0FF33C1E902239DF80D301846D7
:1089000000F014FB019B5B69019A9269104698473D
:1089100000238DF80C3003AB184600F0F1FA019BF0
:108920001B69002B1AD0019BD3E90223B3F1FF3F4F
:1089300008BFB2F1FF3F11D0019BD3E90223019997
:10894000096900200C460546161943EB0507019BF3
:10895000C3E9026701238DF80E3002E000238DF891
:108960000E309DF80C30184600F0E0FA9DF80E30FD
:10897000002B19D0019B1946104802F061F9012320
:108980008DF80F3010E0019BD3E90223B3F1FF3FD4
:1089900008BFB2F1FF3F07D0019B1946074802F01C
:1089A0004FF901238DF80F309DF80F30184605B0B0
:1089B000F0BD00BF40040300A8E20020A0040300B3
:1089C00030B58BB0019000910D230993009B0022DC
:1089D0001A70019BD3E90223CDE90623FFF70AFFB2
:1089E000DDE90623141A63EB0105CDE90445DDE951
:1089F0000423012A73F1000318DB049BB3F5350F40
:108A000005D300F0FFF90246144B134400E0069B27
:108A100003934FF49603039A0021114800F058FD88
:108A20000990099B002B05D1012314E000210C487B
:108A300000F026FE099B0D2B07D10198FFF72CFFB4
:108A400003461A46009B1A7004E006494FF48670EC
:108A500003F0D4FA002318460BB030BDFFFFB4007A
:108A60004CA200204004030000B583B0044802F08B
:108A700021F90190019B184603B05DF804FB00BF8B
:108A8000A004030000B583B0044802F035F901905A
:108A9000019B184603B05DF804FB00BFA00403006F
:108AA00000B583B0FFF7E0FF0190019B002B06D0DB
:108AB00001994FF0FF324FF0FF33C1E90223019BD0
:108AC000002BEFD100BF00BF03B05DF804FB000036
:108AD000054BD3E9002312F1807043F10001024BF2
:108AE000C3E9000100BF7047B0E2002010B582B0BA
:108AF0000190124B1B68002B1DD0019800F0F5FD72
:108B000004460021019800F0E1FD03461946204685
:108B100000F06CF90346B3F5960F04D3084940F210
:108B2000411003F06BFA054B1B681846FFF7B4FEC3
:108B3000024B00221A6000BF02B010BDA4E2002068
:108B40004004030000B583B00190FFF753FE0246D6
:108B50000B460349C1E9002300BF03B05DF804FBE5
:108B6000B8E2002000B587B00190FFF78BFF0490BA
:108B700000238DF81730049B002B58D0049BD3E9B9
:108B80000223B3F1FF3F08BFB2F1FF3F02D1FFF76D
:108B90006BFF54E02E4B1B68002B03D101238DF893
:108BA00017301DE0049BD3E90201294B1B68D3E970
:108BB0000223904271EB030312D201238DF8173088
:108BC000234B1B68D3E90223B3F1FF3F08BFB2F187
:108BD000FF3F05D01E4B1B6819461E4802F030F8B7
:108BE0009DF81730002B2BD0FFF73EFF04900DF1BE
:108BF0000F0319460498FFF7E3FE0346002B12D03B
:108C0000134B1B68002B02D1019800F06DFB104A3A
:108C1000049B13609DF80F3083F00103DBB2002B3F
:108C2000A3D000BF0FE00A4B00221A609DE7084B5B
:108C30001B68002B06D1019800F06CFB02E094E762
:108C400000BF00E000BF00BF07B05DF804FB00BF3D
:108C5000A4E20020A004030000B587B001902B4AD5
:108C600003AB1946104600F0C9FD049045E0049B93
:108C70001B78022B2BD0022B2FDC002B02D0012BD8
:108C800011D02AE0049B5B68D3E90223B3F1FF3FD4
:108C900008BFB2F1FF3F22D0049B5B6819461C4815
:108CA00001F0CEFF1BE0049B5A681A4B1B689A42E6
:108CB00003D1184B00221A6012E0049B5B6819462E
:108CC000134802F02DF803468DF8173008E0FFF73F
:108CD000E7FE114B01221A7002E000BF00E000BF66
:108CE0000A4A03AB1946104600F0A1FD074A03AB40
:108CF0001946104600F082FD0490049B002BB6D16B
:108D000000BF00BF07B05DF804FB00BF18E3002000
:108D1000A0040300A4E20020A8E2002000B583B074
:108D20000190019800F09FFC0346002B01D0FFF753
:108D3000CFFE0021019800F0B4FC0346002B02D0C6
:108D40000198FFF7D3FE0121019800F0AAFC034629
:108D5000002B02D00198FFF7F5FE0198FFF77CFF8A
:108D60000198FFF7FFFE00BF03B05DF804FB0000B1
:108D700000B583B0164B1B68009316480823582291
:108D8000154900F008FD0190019B002B01D0019BCB
:108D900019E06B46114A1946114800F027FA019074
:108DA000019B002B01D0019B0DE001210C4800F03C
:108DB00049FC01230B4A0121094800F0C1FA0A4B82
:108DC00001221A70019B184603B05DF804FB00BF36
:108DD0009C04030018E30020C0E200201D8D020067
:108DE0004CA20020FFFF7F00A8E2002082B001908B
:108DF0000091019A009BD31A23F07F43184602B0DA
:108E00007047000008B5034800F06FFC03461846A1
:108E100008BD00BF4CA2002082B0EFF31083009386
:108E2000009B019372B600BF019B184602B07047C9
:108E300062B600BF00BF704700B585B00190FFF774
:108E4000EBFF0390164B9B68002B1BD1144B0122A8
:108E50009A60144BD3F88020134B1340104A1360D0
:108E6000104B114AC3F880200E4BD3F884300C4AC3
:108E700053600C4B4FF0FF32C3F88420019B00225B
:108E80001A7002E0019B01221A70039B002B01D192
:108E9000FFF7CEFF0023184605B05DF804FB00BFC6
:108EA0002CE3002000E100E0FC06FFBD00B585B02A
:108EB00003468DF80730104B9B68002B16D09DF8A9
:108EC0000730002B12D1FFF7A7FF03900B4A0A4B84
:108ED0001B681360094A084B5B685360064B00220D
:108EE0009A60039B002B01D1FFF7A2FF00231846D5
:108EF00005B05DF804FB00BF2CE3002000E100E0BA
:108F000000B583B0019000F02BF80346012B03D08D
:108F10000549432003F072F80198FFF78DFF00BF69
:108F200003B05DF804FB00BFAC04030000B583B0E0
:108F300003468DF8073000F013F80346012B03D0E9
:108F40000649512003F05AF89DF807301846FFF7FC
:108F5000ADFF00BF03B05DF804FB00BFAC0403002D
:108F600084B0EFF305830193019BC3F308030393DC
:108F7000039B002B0DD1EFF314830093009B02930E
:108F8000029B03F00103002B0CBF01230023DBB283
:108F900000E00123184604B07047000082B0034689
:108FA0008DF807309DF90730002B0CDB9DF807305A
:108FB00003F01F0205499DF907305B09012000FA03
:108FC00002F241F8232000BF02B0704700E100E048
:108FD00082B0034600918DF807309DF90730002BD1
:108FE0000ADB009BDAB20C499DF907305201D2B27C
:108FF0000B4483F800230BE0009BDAB207499DF88D
:10900000073003F00F03043B5201D2B20B441A762F
:1090100000BF02B0704700BF00E100E000ED00E0DB
:1090200000B583B003460A468DF8073013468DF825
:1090300006309DF80630012B03D99DF80630032B2E
:109040000BD99DF80630042B03D99DF80630072B69
:1090500003D908496B2002F0D1FF9DF806209DF945
:10906000073011461846FFF7B3FF00BF03B05DF8A5
:1090700004FB00BF1005030000B583B003468DF864
:1090800007309DF907301846FFF788FF00BF03B08F
:109090005DF804FB00B585B00190019B002B0AD060
:1090A000074B43F001030393019B9B010293039B36
:1090B0000298984700E000BF05B05DF804FB00BFD0
:1090C0001006030084B0039002910192039B029A60
:1090D00002F5A872019943F8221000BF04B070474E
:1090E00082B001900091019B009A02F5A87253F89A
:1090F0002230184602B0704782B001900091019B67
:10910000009AC3F8042300BF02B0704782B00190F8
:109110000091019B009AC3F8082300BF02B070477A
:1091200082B001900B46ADF80230BDF80230019AD2
:1091300013441B68184602B0704784B001900B4678
:10914000ADF80230BDF80230019A134400221A60D3
:10915000BDF80230019A13441B680393039B00BFC0
:1091600004B0704782B00190019BD3F804351846D3
:1091700002B0704700B583B001900091009BB3F539
:10918000805F04D306494FF4BE7002F037FF019BA5
:10919000009AC3F8082500BF03B05DF804FB00BFC8
:1091A0004005030082B001900B468DF803309DF816
:1091B0000320019B13441A460123136000BF02B031
:1091C000704782B001900091019B009AC3F844233C
:1091D00000BF02B0704782B001900091019B009ADD
:1091E000C3F8482300BF02B07047000000B587B045
:1091F000039002910192039B002B03D13349552028
:1092000002F0FCFE029B002B03D13049562002F0F5
:10921000F5FE019B002B03D12C49572002F0EEFEF6
:10922000039B5B7919462A4A019B42F82130039B34
:109230005B79284ADB0013441B79002B0ED00823EE
:109240000593254A254BD31ADB081B0443F0020380
:1092500023491846FEF72CFD059B32E0039B1A6854
:10926000029B1B8819461046FFF784FF039B93F966
:109270000420029B9B7819461046FFF7D1FE039B02
:1092800093F904301846FFF7F7FE039B5B79114A08
:10929000DB00134401221A71039B5B7919460D4AC6
:1092A000039B42F83130002305930B4A0B4BD31A32
:1092B000DB081B0443F003030A491846FEF7F8FCD9
:1092C000059B184607B05DF804FB00BF6C05030062
:1092D00038E300203CE30020CCFF020094FF0200B2
:1092E000C4050300E805030000B583B00190019BAD
:1092F000002B03D10649872002F080FE019B1B68EA
:1093000000211846FFF74EFF00BF03B05DF804FBD5
:109310006C05030000B583B00190019B002B03D1C5
:1093200006498D2002F06AFE019B1B680421184645
:10933000FFF738FF00BF03B05DF804FB6C050300C6
:1093400000B587B00390029101928DF80330039B22
:10935000002B03D12149962002F050FE4FF48032B9
:10936000029B02FA03F30593029B50339BB29B00CE
:10937000ADF81230019B23F07F430193039B1B68E0
:1093800005991846FFF7C2FE039B1B68059918460E
:10939000FFF721FF039B1B68BDF8122011461846FA
:1093A000FFF7CBFE039B1B68019A02991846FFF753
:1093B00089FE039B1B6805991846FFF702FF9DF87D
:1093C0000330002B05D0039B1B6805991846FFF757
:1093D00093FE00BF07B05DF804FB00BF6C050300FF
:1093E00000B585B00390029113468DF80730039BBA
:1093F000002B03D10B49A92002F000FE039B1B6840
:1094000002991846FFF7DDFE9DF80730002B05D0C6
:10941000039B1B6802991846FFF76EFE00BF05B05C
:109420005DF804FB6C05030000B583B0019000916A
:10943000019B002B03D10A49B32002F0DFFD019B01
:109440001B6800991846FFF7C6FE019B1B68009930
:109450001846FFF75BFE00BF03B05DF804FB00BFDA
:109460006C05030000B583B001900B46ADF80230E7
:10947000019B002B03D10F49BA2002F0BFFD019BD5
:109480001B68BDF8022011461846FFF749FE034647
:10949000002B09D0019B1B68BDF80220114618461D
:1094A000FFF74BFE012300E00023184603B05DF8F0
:1094B00004FB00BF6C05030082B001900091019A8B
:1094C000009BD31A23F07F43184602B07047000078
:1094D00000B58BB00390029101920093039B002B87
:1094E00003D15749CD2002F089FD4FF48032029B11
:1094F00002FA03F30993029B50339BB29B00ADF831
:109500002230019B23F07F43019309990398FFF7D1
:109510008BFF039B1B681846FFF724FE0790039BF5
:109520001B6802991846FFF7DBFD0690039B1B683A
:10953000079A02991846FFF7C5FD039B1B68BDF803
:10954000222011461846FFF7F8FD07990698FFF705
:10955000B3FF0346012B0AD11020FFF79BFD039BAD
:109560001B68BDF8222011461846FFF7E6FD039B55
:109570001B681846FFF7F6FD079007990198FFF75B
:109580009BFF0590039B1B6809991846FFF719FE7E
:10959000059B012B15D1039B1868019B01331A46CB
:1095A0000299FFF78FFD1020FFF774FD039B1B68E6
:1095B0001846FFF7D7FD0246079B934235D00D238F
:1095C00039E0039B1B68019A02991846FFF77AFD60
:1095D000039B1B681846FFF7C5FD0790019B013BE5
:1095E00007991846FFF768FF0590009BC3F1FF132A
:1095F00003F57F43059A9A4201D90D231BE0059B91
:10960000002B12D1039B1868019B01331A46029963
:10961000FFF758FD039B1B681846FFF7A3FD0246A2
:10962000079B934201D00D2305E00122099903987D
:10963000FFF7D6FE002318460BB05DF804FB00BF11
:109640006C05030000B583B001900B468DF8033024
:109650009DF803301A4602210198FFF7C1FE00BFB2
:1096600003B05DF804FB00B583B001904FF4827144
:109670000198FFF7F7FE0346184603B05DF804FBB8
:1096800000B583B0019000914FF48032009B02FA44
:1096900003F319460198FFF7C7FE00BF03B05DF85A
:1096A00004FB00B585B001900091009B50339BB244
:1096B0009B00ADF80E30BDF80E3019460198FFF74B
:1096C000D1FE0346184605B05DF804FB00B583B033
:1096D00001900091019B1B6800991846FFF700FD5F
:1096E0000346184603B05DF804FB00B583B0019053
:1096F000019B1B681846FFF735FD0346184603B06B
:109700005DF804FB08B5044B1B68044A1268104658
:10971000984700BF08BD00BF38E300203CE30020AD
:1097200086B001900091019B53E8021F1FFAA1F23D
:10973000D888824202BFBFF32F8F00230DE0D88963
:1097400002449889824228BF121AC1EA024243E8C1
:1097500002200028E8D14FF001038DF80F3005906A
:1097600002910492029A009B1A609DF80F30DBB2BE
:10977000184606B0704784B00190019951E8023F45
:10978000C3EA234341E80232002AF7D1039202934D
:1097900000BF04B0704784B00390029111461A468E
:1097A0000B46ADF806301346ADF80430029B002B93
:1097B00001D10E231FE0BDF80630BDF80420B3FB35
:1097C000F2F101FB02F29B1A9BB2002B01D009239C
:1097D00011E0039B029A1A60039B00225A60039BCC
:1097E00000229A60039BBDF806209A81039BBDF876
:1097F0000420DA810023184604B0704700B585B014
:1098000001900091009B19460198FFF789FF0346DC
:10981000002B07D0019B1B68009A528813440393C6
:10982000039B00E00023184605B05DF804FB00B57B
:1098300083B001900091009B1A88009B5B889A423C
:1098400004D10198FFF797FF012300E00023184699
:1098500003B05DF804FB10B487B001900091019B48
:10986000009A53E8004F104643E8000191F0000FC2
:10987000F7D1059404900391059B184607B05DF855
:10988000044B704710B487B001900091019B009A7F
:1098900053E8004F44EA020043E8000191F0000F52
:1098A000F6D1059404900391049B184607B05DF827
:1098B000044B704710B487B001900091019B009A4F
:1098C00053E8004F04EA020043E8000191F0000F62
:1098D000F6D1059404900391059B184607B05DF8F6
:1098E000044B704710B487B001900091019B009A1F
:1098F00053E8004F04EB020043E8000191F0000F31
:10990000F6D1059404900391049B184607B05DF8C6
:10991000044B704710B487B001900091019B009AEE
:1099200053E8004FA4EB020043E8000191F0000F60
:10993000F6D1059404900391049B184607B05DF896
:10994000044B704700B583B0019001210198FFF7E7
:1099500099FF0346184603B05DF804FB00B583B0D9
:10996000019000210198FFF7A5FF0346184603B0B8
:109970005DF804FB00B583B001900B468DF8033011
:10998000019B002B03D10849E82002F037FB019B23
:10999000DA689DF803300199098A01FB03F3134447
:1099A000184603B05DF804FB1806030000B583B049
:1099B00001900091019B002B03D10849F52002F092
:1099C0001DFB009B019AD2689B1A019A128AB3FB75
:1099D000F2F3DBB2184603B05DF804FB180603008F
:1099E00000B585B00190019B002B01D10E234CE006
:1099F000019B1B68002B03D12649FF2002F0FEFAD1
:109A0000019B5B68002B04D122494FF4807002F067
:109A1000F5FA019B9B68002B04D11E4940F201100E
:109A200002F0ECFA019BDB68002B04D119494FF4DA
:109A3000817002F0E3FA019B1B8A002B04D11549C7
:109A400040F2031002F0DAFA019B9A68019B5B680E
:109A5000D31A8DF80F30019B1B68019A52681A6067
:109A600007E0019B1A681368591C11609DF80F20CC
:109A70001A709DF80F305A1E8DF80F20002BF0D170
:109A8000019B1B6800221A710023184605B05DF87F
:109A900004FB00BF1806030000B585B00190019BD0
:109AA000002B04D11F494FF4927002F0A7FA002353
:109AB000039300238DF80A300DF10A031846FFF7CF
:109AC0001FFA019B1B681A68019B5B689A421FD9A9
:109AD000019B1B681A68013A1A601B681B781946BB
:109AE0000198FFF747FF0390019B9A68019B1B6851
:109AF0001B68D31A8DF80B30019B1B681B799DF8EE
:109B00000B209A4204D9019B1B689DF80B201A7107
:109B10009DF80A301846FFF709FA039B184605B06E
:109B20005DF804FB1806030010B584B001900091A5
:109B3000019B002B04D1154940F2471002F05EFA58
:109B4000009B002B04D111494FF4A47002F056FA87
:109B5000009B039300238DF80B300DF10B03184687
:109B6000FFF7CEF9019B1B681C68621C1A60039901
:109B70000198FFF71BFF034623709DF80B30184632
:109B8000FFF7D4F900BF04B010BD00BF18060300F2
:109B900000B583B00190019B002B03D10C4931200B
:109BA00002F02CFA019B9B68002B0CD0019B5B6997
:109BB000019A1069019A1168019A92689847019B6D
:109BC00000229A6000E000BF03B05DF804FB00BF14
:109BD000740603000EB400B584B00190019B002B05
:109BE00003D11849422002F009FA019B5B69002B5E
:109BF00003D11449432002F001FA019B1B68002B9A
:109C000003D11049442002F0F9F9019B5B68002B55
:109C100003D10C49452002F0F1F9059B002B0AD035
:109C20000023039306AB039303AB1A4605990198EF
:109C300000F0B8F900E000BF04B05DF804EB03B039
:109C4000704700BF7406030000B583B001900B4657
:109C50008DF803309DF803300A2B03D10D210198B4
:109C6000FFF7F2FF019B1A68019B9B68581C019942
:109C7000886013449DF803201A70019B9A68019B29
:109C80005B689A4202D30198FFF782FF00BF03B0DE
:109C90005DF804FB00B587B0039002910192009338
:109CA00000230593009B03F00103002B24D00BE05D
:109CB000029B01330293059B013305939DF81330FA
:109CC00019460398FFF7C0FF029B1B788DF81330ED
:109CD0009DF81330002BEBD106E0019B013B019373
:109CE00020210398FFF7B0FF019A059B9A422ED9D5
:109CF000019B002BF1D12AE0029B002B0BD0029894
:109D000006F012F9059006E0019B013B019320212A
:109D10000398FFF799FF019A059B9A420FD9019B7F
:109D2000002BF1D10BE0029B01330293059B013321
:109D300005939DF8133019460398FFF785FF029BA2
:109D40001B788DF813309DF81330002BEBD100BF3A
:109D500007B05DF804FB000000B589B003900291E4
:109D600001920093029B07930123069307E0079A51
:109D7000019BB2FBF3F30793069B01330693079A0B
:109D8000019B9A42F3D2009A069B9A4201D9009B0A
:109D900006930B9B03F00103002B22D10A9B002B9F
:109DA0001FD00B9B03F00203002B06D0009B002B5F
:109DB00003D130238DF8173002E020238DF81730BF
:109DC00008E00A9B013B0A939DF817301946039857
:109DD000FFF73AFF0A9B002B03D0069A0A9B9A4290
:109DE000EFD301230793009B012B03D9009B013B79
:109DF000009309E0029A079BB2FBF3F30493049AE1
:109E0000019B9A4200D205E0079B019A02FB03F3F3
:109E10000793E8E7029A079BB2FBF3F30493049BD2
:109E2000079A02FB03F3029AD31A0293154A049B82
:109E300013441B7819460398FFF706FF079A019B06
:109E4000B2FBF3F30793079B002BE3D10B9B03F0CB
:109E50000103002B11D00A9B002B0ED006E00A9BB9
:109E6000013B0A9320210398FFF7EEFE0A9B002B8B
:109E700003D0069A0A9B9A42F1D300BF09B05DF85D
:109E800004FB00BF2407030000B589B005900491CE
:109E900003920293049B002BB8BF5B4206930123FD
:109EA000079307E0039B069A92FBF3F30693079B45
:109EB00001330793039B069A9A42F3DA029A079BAF
:109EC0009A4201D9029B07930A9B002B0AD0049B5C
:109ED000002B04DB0B9B03F00403002B02D00A9B36
:109EE000013B0A930B9B03F00203002B02D0029B61
:109EF000002B16D00B9B03F00103002B11D10A9B02
:109F0000002B0ED006E00A9B013B0A932021059806
:109F1000FFF79AFE0A9B002B03D0079A0A9B9A42EE
:109F2000F1D3049B002B07DA049B5B4204932D21A1
:109F30000598FFF789FE08E00B9B03F00403002B54
:109F400003D02B210598FFF77FFE0B9B03F0020344
:109F5000002B19D00B9B03F00103002B14D1029BA3
:109F6000002B11D10A9B002B0ED006E00A9B013B6F
:109F70000A9330210598FFF767FE0A9B002B03D058
:109F8000079A0A9B9A42F1D304990B9B01930A9B6F
:109F90000093029B039A0598FFF7DEFE00BF09B00D
:109FA0005DF804FB00B58FB0059004910392059B0A
:109FB000002B04D1AD4940F2522002F01FF8059B5E
:109FC0005B69002B04D1A9494FF4157002F016F813
:109FD000059B1B68002B04D1A44940F2552002F0D8
:109FE0000DF8059B5B68002B04D1A04940F2562078
:109FF00002F004F8049B002B00F09381049B1B7873
:10A000008DF83730049B013304939DF83730002BD3
:10A0100000F07E819DF83730252B40F06D810023C4
:10A020000A9301230C93049B1B788DF837309DF81D
:10A030003730302B0DD0302B1BDC2B2B11D02D2BA0
:10A0400017D10A9B43F001030A93049B0133049345
:10A0500012E00A9B43F002030A93049B013304932A
:10A060000AE00A9B43F004030A93049B0133049320
:10A0700002E000230C9300BF0C9B002BD3D10023E4
:10A0800009939DF837302A2B0CD1039B1B68191DAF
:10A09000039A11601B68099A13440993049B0133C6
:10A0A00004931AE0049B1B788DF837309DF8373005
:10A0B0002F2B12D99DF83730392B0ED8049B013342
:10A0C0000493099A13469B0013445B001A469DF8BB
:10A0D00037301344303B0993D3E700230B93049BA1
:10A0E0001B788DF837309DF837302E2B1DD1049B0F
:10A0F00001330493049B1B788DF837309DF837307B
:10A100002F2B12D99DF83730392B0ED8049B0133F1
:10A1100004930B9A13469B0013445B001A469DF868
:10A1200037301344303B0B93E4E7049B1B788DF8E6
:10A1300037309DF837306C2B03D09DF83730682BC3
:10A1400007D1049B01330493049B1B788DF83730AF
:10A15000EFE79DF83730252B00F0C480252BC0F2A7
:10A16000C680782B00F3C380582BC0F2C080583BC8
:10A17000202B00F2BC8001A252F823F071A2020051
:10A18000EFA20200EFA20200EFA20200EFA2020083
:10A19000EFA20200EFA20200EFA20200EFA2020073
:10A1A000EFA20200EFA2020001A2020023A202001D
:10A1B000EFA20200EFA20200EFA20200EFA2020053
:10A1C00023A20200EFA20200EFA20200EFA202000F
:10A1D000EFA20200EFA20200EFA20200B1A2020071
:10A1E000EFA20200EFA2020095A20200EFA202007D
:10A1F00047A20200EFA20200EFA2020071A2020039
:10A20000039B1B68191D039A11601B680C930C9B20
:10A210008DF81F309DF81F3019460598FFF714FD83
:10A2200066E0039B1B68191D039A11601B680C9361
:10A230000A9B0193099B00930B9B0A220C9905989A
:10A24000FFF722FE54E0039B1B68191D039A11605F
:10A250001B680C930C990A9B0193099B00930B9B21
:10A260000A220598FFF778FD42E000BFC806030008
:10A27000039B1B68191D039A11601B680C930C99B2
:10A280000A9B0193099B00930B9B10220598FFF7F3
:10A2900063FD2DE0039B1B68191D039A11601B6869
:10A2A00008930A9B099A08990598FFF7F3FC1FE0A9
:10A2B000039B1B68191D039A11601B680C933021C6
:10A2C0000598FFF7C1FC78210598FFF7BDFC0C99B4
:10A2D0000023019308230093082310220598FFF719
:10A2E0003BFD05E025210598FFF7AEFC00E000BF2F
:10A2F000049B0133049305E09DF837301946059817
:10A30000FFF7A2FC049B1B78002B7FF477AE00E0E4
:10A3100000BF059B1B7B002B04D00598FFF738FC82
:10A3200000E000BF0FB05DF804FB00BF00B583B0D4
:10A3300001900198FFF754FB0346184603B05DF8FF
:10A3400004FB00B58BB001900091019B1B8A043B7C
:10A350000793009A079B1344DA1C079BB2FBF3F3A5
:10A360008DF81B300198FFF797FB0590059B002B9C
:10A3700001D1002338E0059B00221A71059B0122C0
:10A380005A71079B9AB2059BDA80059B09939DF849
:10A390001B30013B0493099B019A1A600023089328
:10A3A0001DE00198FFF778FB0390039B002B0ED074
:10A3B000059B5B790133DAB2059B5A71099B039ABD
:10A3C0001A60039B019A1A60039B099304E00598A5
:10A3D00000F00EF8002307E0089B01330893089A69
:10A3E000049B9A42DDD3059B18460BB05DF804FB35
:10A3F00000B58BB00190019B0793079B5B798DF8AB
:10A400001B30019B08939DF81B30013B05930023F3
:10A41000099305E0089B1B680893099B0133099386
:10A42000099A059B9A42F5D3089B1B680493019BEC
:10A430000893002309930BE0089B1B68039308997A
:10A440000498FFF771FB039B0893099B0133099361
:10A450009DF81B30099A9A42EED300BF00BF0BB0A3
:10A460005DF804FB00B585B00190019B0393039B4D
:10A47000043301211846FFF735FA00BF05B05DF837
:10A4800004FB00B587B00190019B0593059B043345
:10A4900001211846FFF73EFA0346039303AB0493EA
:10A4A000049B1B78002B02D10198FFF7A1FF00BF8E
:10A4B00007B05DF804FB000000B591B00390029175
:10A4C00001920093039B002B03D14349B62001F076
:10A4D00095FD039B0993039B0F93099BDB881A4609
:10A4E000099B5B7902FB03F3043B0893009A089BEA
:10A4F0009A4203D33849C42001F080FD099BDB88D0
:10A500000793009B1A1D079BB2FBF3F30E93009B6E
:10A510000433079AB3FBF2F2079901FB02F29B1A8C
:10A520000D93019B1A68009B1344089A9A4203D228
:10A53000089A009BD31A01E0019B1B680C93019BB6
:10A540000C9A1A6005E00F9B1B680F930E9B013B52
:10A550000E930E9B002BF6D100230B93079A0D9BB5
:10A56000D31A0A930A9A0C9B934228BF13460A9364
:10A570002AE0029A0B9B134406930F9A0D9B1344F7
:10A58000043305939DF84830002B05D00A9A0599AD
:10A59000069805F06DFC04E00A9A0699059805F006
:10A5A00067FC00230D930F9B1B680F930C9A0A9B6B
:10A5B000D31A0C930B9A0A9B13440B93079A0C9B88
:10A5C000934228BF13460A930C9B002BD1D100BFA6
:10A5D00000BF11B05DF804FB3407030000B589B07B
:10A5E0000590049103920293039B079307AA00230B
:10A5F0000093029B04990598FFF75EFF079B039A5F
:10A600009A4203D00349F62001F0F8FC00BF09B0DC
:10A610005DF804FB3407030000B589B00590049190
:10A6200003920293039B079307AA01230093029BC3
:10A6300004990598FFF740FF079B039A9A4204D0BC
:10A6400004494FF4807001F0D9FC00BF09B05DF8F7
:10A6500004FB00BF3407030082B003468DF80730C7
:10A660009DF90730002B0DDB9DF8073003F01F022A
:10A6700006499DF907305B09012000FA02F26033B8
:10A6800041F8232000BF02B0704700BF00E100E0A6
:10A6900000B583B00190019B002B03D106497220C5
:10A6A00001F0ACFC019B00221A60BFF35F8F00BF7A
:10A6B00000BF03B05DF804FBE407030041DF70470F
:10A6C00000BF184600B585B000238DF807300DF1A6
:10A6D00007031846FEF714FCF1EE103A0393039BB0
:10A6E00023F09F030293029BE1EE103A00BFBFF3F9
:10A6F0005F8F00BF2620FFF7AFFF9DF80730184699
:10A70000FEF714FC039B03F00703002B03D004495E
:10A710007D2001F073FC00BF05B05DF804FB00BFB5
:10A720002808030008B5064B00221A700548FFF7F9
:10A73000AFFF0549054800F027FA0023184608BD79
:10A7400048E3002044E30020880803004CE3002095
:10A7500000B583B0FFF7B6FF05F06EF80346002B97
:10A760000ED0FFF7ABFF0190019B002B0BD0019B9C
:10A77000022B08D006494FF4B07001F03FFC02E014
:10A7800020BF40BF20BF00BF03B05DF804FB00BF87
:10A790002808030082B00190019B9B68024A12784E
:10A7A0001344184602B07047EE08030000B583B0AA
:10A7B00001900091019B002B03D10849832001F0F7
:10A7C0001DFC019B9B68009A9A4202D2009B0133B8
:10A7D00000E00023184603B05DF804FB9408030072
:10A7E00000B585B00190019B1B681B680393019B1A
:10A7F0001B685B680293029A039B9A4203D3029AF6
:10A80000039BD31A07E00198FFF7C4FF0246039B9E
:10A81000D21A029B1344184605B05DF804FB0000F1
:10A8200000B585B00190019B002B03D10D49982004
:10A8300001F0E4FB019B1B681B680393019B1B68F1
:10A840005B68029302990198FFF7B0FF0246039BF1
:10A8500093420CBF01230023DBB2184605B05DF81C
:10A8600004FB00BF9408030010B588B0019000916C
:10A8700000230793019B002B03D15649A32001F02D
:10A88000BDFB009B002B03D15249A42001F0B6FB75
:10A8900000238DF80F300DF10F031846FEF730FB43
:10A8A0000198FFF7BDFF03468DF81B309DF81B3064
:10A8B00083F00103DBB2002B03D1019B1B7C002B37
:10A8C0007BD1019B1B685B680593019B1B685A68E1
:10A8D000019B1C6811460198FFF768FF03466360FF
:10A8E0009DF81B30002B0AD0019B1B681A68019B46
:10A8F0001C6811460198FFF759FF03462360019B2E
:10A90000DB68013B072B38D801A252F823F000BFC7
:10A9100031A9020041A902007BA9020053A902004B
:10A920007BA902007BA902007BA9020065A90200A5
:10A93000019B5A68059B1344009A12781A702DE007
:10A94000019B5A68059B5B001344009A12881A8089
:10A9500024E0019B5A68059B9B001344009A1268EF
:10A960001A601BE0019B5A68059BDB00D118009B15
:10A97000D3E90023C1E9002310E0019B5B6819467D
:10A98000019BDB68059A02FB03F30B441846019B0D
:10A99000DB681A46009905F06BFA00BF0198FFF7D3
:10A9A0001FFF0490019B1B689B68049A9A4207D979
:10A9B000019B1B68049A9A6002E00423079300E05D
:10A9C00000BF9DF80F301846FEF7B0FA079B1846F7
:10A9D00008B010BD9408030010B588B00390029130
:10A9E00013468DF8073000230793039B002B03D1F8
:10A9F0004549E72001F002FB029B002B03D14249AD
:10AA0000E82001F0FBFA00238DF817300DF1170351
:10AA10001846FEF775FA039800F078F8034683F0BD
:10AA20000103DBB2002B63D0039B1B681B680693FA
:10AA30009DF8073083F00103DBB2002B0AD0039BA3
:10AA40001B681A68039B1C6811460398FFF7AEFE4B
:10AA500003462360039BDB68013B072B37D801A229
:10AA600052F823F085AA020095AA0200CFAA02009C
:10AA7000A7AA0200CFAA0200CFAA0200CFAA020012
:10AA8000B9AA0200039B5A68069B13441A78029BDA
:10AA90001A702FE0039B5A68069B5B0013441A88C8
:10AAA000029B1A8026E0039B5A68069B9B00134476
:10AAB0001A68029B1A601DE0039B5A68069BDB0024
:10AAC0001344D3E900230299C1E9002312E0039B58
:10AAD0005B681946039BDB68069A02FB03F30B4491
:10AAE0001946039BDB681A46029805F0C1F901E09C
:10AAF000052307939DF817301846FEF717FA079BB2
:10AB0000184608B010BD00BF9408030000B585B01A
:10AB10000190019B002B04D10B4940F22B2001F046
:10AB20006DFA019B1B681B680393019B1B685B68A4
:10AB30000293039A029B9A420CBF01230023DBB2CB
:10AB4000184605B05DF804FB9408030082B001903C
:10AB5000019B9B6800229A60019B9B6800221A61FE
:10AB6000019B9B6800225A61019B9B680022DA606E
:10AB7000019B9B6800225A60019B9B6800221A601F
:10AB800000BF02B07047000000B583B00190009193
:10AB9000019B002B03D11049502001F02FFA009B9C
:10ABA000002B03D10C49512001F028FA019B009A97
:10ABB0001A60019B1B681A68019B5A60019B5A68C6
:10ABC000019B1B685B689A4202D1019B00225A607C
:10ABD00000BF03B05DF804FBF008030000B583B0CC
:10ABE0000190019B002B03D11449632001F006FA68
:10ABF000019B1B68002B03D11049642001F0FEF972
:10AC0000019B5B68002B14D0019B5B681A46019B7B
:10AC10001B689B6813441A46019B5A60019B5A6843
:10AC2000019B1B685B689A4204D1019B00225A6019
:10AC300000E000BF03B05DF804FB00BFF0080300B4
:10AC400000B585B001900091019B002B03D11849FC
:10AC50003A2001F0D3F9009B002B03D114493B208B
:10AC600001F0CCF9019B5B6803930FE0019B9B68AB
:10AC7000039A1268009910469847034683F001032F
:10AC8000DBB2002B07D1039B1B680393039B1B685C
:10AC9000002BEBD100E000BF039B1A68009B1A60F9
:10ACA000039B009A1A6000BF05B05DF804FB00BF6B
:10ACB0007409030000B585B00190019B002B03D1FE
:10ACC0000C49512001F09AF9019B5B681B680393C2
:10ACD000019B5B681B68002B06D0019B5B681A68B0
:10ACE000019B5B6812681A60039B184605B05DF80B
:10ACF00004FB00BF7409030000B583B00190019B01
:10AD0000002B03D105495D2001F078F9019B5B68B8
:10AD10001B68184603B05DF804FB00BF740903000C
:10AD200000B585B001900091019B002B03D116491D
:10AD3000692001F063F9009B002B03D112496A20BE
:10AD400001F05CF900238DF80B30019B5B680393E5
:10AD50000FE0039B1B68009A9A4207D1009B1A6878
:10AD6000039B1A6001238DF80B3006E0039B1B68E0
:10AD70000393039B1B68002BEBD19DF80B30184607
:10AD800005B05DF804FB00BF7409030000B585B091
:10AD90000190019800F00EF80390039B002B01D066
:10ADA000039B00E0024B184605B05DF804FB00BFB2
:10ADB000D409030086B00190164B0593164B0493FB
:10ADC0001FE0049A059BD31ADB10DA0F13445B10C3
:10ADD000DB00059A13440393039B1B680293029ABA
:10ADE000019B9A4202D9039B04930AE0029A019BB9
:10ADF0009A4203D2039B0833059302E0039B5B68EE
:10AE000004E0059A049B9A42DBD30023184606B05F
:10AE1000704700BFD40D0300FC0E0300BFF34F8F3B
:10AE200000BF064BDB6803F4E0620449044B1343A4
:10AE3000CB60BFF34F8F00BF00BFFDE700ED00E028
:10AE40000400FA0582B0164B1B680193154B1B6872
:10AE50000093019B082B1FD1009B052B1AD801A240
:10AE600052F823F07DAE020081AE020085AE0200F2
:10AE700089AE02008DAE020091AE020001230CE00B
:10AE800001230AE0012308E0012306E0012304E096
:10AE9000012302E0012300E00023184602B07047BE
:10AEA000300100103401001082B0164B1B68019372
:10AEB000154B1B680093019B082B1FD1009B052B92
:10AEC0001AD801A252F823F0E1AE0200E5AE02006A
:10AED000E9AE0200EDAE0200F1AE0200F5AE0200F6
:10AEE00001230CE001230AE0012308E0012306E02E
:10AEF000012304E0012302E0012300E000231846BF
:10AF000002B07047300100103401001082B0164BBF
:10AF10001B680193154B1B680093019B082B1FD1E5
:10AF2000009B052B1AD801A252F823F045AF02006E
:10AF300049AF02004DAF020051AF020055AF020011
:10AF400059AF020001230CE000230AE0002308E0CF
:10AF5000002306E0002304E0002302E0002300E0D9
:10AF60000023184602B07047300100103401001071
:10AF700082B0164B1B680193154B1B680093019B15
:10AF8000082B1FD1009B052B1AD801A252F823F0E1
:10AF9000A9AF0200ADAF0200B1AF0200B5AF020031
:10AFA000B9AF0200BDAF020001230CE000230AE0AC
:10AFB000002308E0002306E0002304E0002302E071
:10AFC000002300E00023184602B070473001001053
:10AFD0003401001082B0164B1B680193154B1B689F
:10AFE0000093019B082B1FD1009B052B1AD801A2AF
:10AFF00052F823F00DB0020011B0020015B00200AB
:10B0000019B002001DB0020021B0020001230CE0C3
:10B0100000230AE0002308E0002306E0002304E008
:10B02000002302E0002300E00023184602B070472E
:10B03000300100103401001082B0164B1B680193E0
:10B04000154B1B680093019B082B1FD1009B052B00
:10B050001AD801A252F823F071B0020075B00200B4
:10B0600079B002007DB0020081B0020085B002001C
:10B0700001230CE000230AE0002308E0002306E09F
:10B08000002304E0002302E0002300E00023184630
:10B0900002B07047300100103401001082B0164B2E
:10B0A0001B680193154B1B680093019B082B1FD154
:10B0B000009B052B1AD801A252F823F0D5B002004C
:10B0C000D9B00200DDB00200E1B00200E5B002003C
:10B0D000E9B0020001230CE001230AE0012308E0AB
:10B0E000012306E0012304E0012302E0012300E044
:10B0F0000023184602B070473001001034010010E0
:10B1000082B0164B1B680193154B1B680093019B83
:10B11000082B1FD1009B052B1AD801A252F823F04F
:10B1200039B102003DB1020041B1020045B1020057
:10B1300049B102004DB1020000230CE000230AE0F7
:10B14000002308E0002306E0012304E0012302E0DD
:10B15000012300E00023184602B0704730010010C0
:10B160003401001008B5FFF7CBFF0346002B07D0D2
:10B170004FF010234FF08042D3F80832C2F8583510
:10B1800000BF08BD00BF044BD3F80034002BFAD039
:10B1900000BF00BF704700BF00E0014000B583B0B2
:10B1A0000190054A019BC2F80435FFF7EBFF00BF91
:10B1B00003B05DF804FB00BF00E00140024B034A0E
:10B1C0001A6000BF704700BF54A200200090D00357
:10B1D00008B5FFF737FE0346002B0ED04FF0804333
:10B1E0000022C3F80C214FF080430022C3F8102145
:10B1F0004FF080430022C3F83825FFF755FE034681
:10B20000002B76D04FF08053734AD3F80434C2F841
:10B2100020354FF08053704AD3F80834C2F82435F3
:10B220004FF080536C4AD3F80C34C2F828354FF0F5
:10B230008053694AD3F81034C2F82C354FF080534C
:10B24000654AD3F81434C2F830354FF08053624A5F
:10B25000D3F81834C2F834354FF080535E4AD3F82F
:10B260001C34C2F840354FF080535B4AD3F8203489
:10B27000C2F844354FF08053574AD3F82434C2F80B
:10B2800048354FF08053544AD3F82834C2F84C352F
:10B290004FF08053504AD3F82C34C2F850354FF059
:10B2A00080534D4AD3F83034C2F854354FF08053B0
:10B2B000494AD3F83434C2F860354FF08053464AD7
:10B2C000D3F83834C2F864354FF08053424AD3F88B
:10B2D0003C34C2F868354FF080533F4AD3F84034CD
:10B2E000C2F86C354FF080533B4AD3F84434C2F86F
:10B2F0007035FFF70BFE0346002B02D0374B384A60
:10B300001A60FFF735FE0346002B03D0354BFB22B6
:10B31000C3F81825FFF75EFE0346002B0AD0324B18
:10B320001B6823F00F02314B1B6803F00F032E49FB
:10B3300013430B60FFF780FE0346002B03D02C4B1A
:10B340004FF400721A60FFF7A9FE0346002B0DD0E0
:10B350004FF08043D3F8003403F00103002B05D0F5
:10B360004FF080436FF00102C3F80024214BD3F863
:10B370008830204A43F47003C2F88830BFF34F8FFF
:10B3800000BFBFF36F8F00BFFFF7ECFE4FF010233D
:10B39000D3F80032002B05DB4FF01023D3F8043232
:10B3A000002B15DA0120FFF7F9FE4FF010231222CF
:10B3B000C3F80022FFF7E6FE4FF010231222C3F875
:10B3C0000422FFF7DFFE0020FFF7E8FEFFF726FD6F
:10B3D000FFF7F4FE00BF08BD00C000408C560040DF
:10B3E0004881030000F00040E40E004058020010C5
:10B3F0004096024000ED00E082B003468DF8073031
:10B400009DF90730002B13DB9DF8073003F01F0276
:10B4100009499DF907305B09012000FA02F2203347
:10B4200041F82320BFF34F8F00BFBFF36F8F00BFE2
:10B4300000BF02B0704700BF00E100E0044BD3F84A
:10B440000034002B14BF01230023DBB218467047E1
:10B450000000014008B504F0EFF9034683F0010352
:10B46000DBB2002B03D109497B2000F0C7FDFFF7B9
:10B47000E5FF034683F00103DBB2002B04D000F0AC
:10B4800091FA034B00229A7000BF08BD040F03001D
:10B4900054E3002000B583B000230193184B1B78C0
:10B4A000002B02D0852301931CE0154B00229A60EB
:10B4B000134B00225A60124B00221A61104B0022DB
:10B4C000DA60104800F034FA019004F0B5F9034650
:10B4D00083F00103DBB2002B01D000F04FFA084BE0
:10B4E00001221A70FFF7AAFF0346002B02D0044B7B
:10B4F00001229A70019B184603B05DF804FB00BF5F
:10B5000054E30020DDB5020084B00190019B1B686C
:10B510000393039B002B03D0039B1A68019B1A60C3
:10B52000039B184604B0704700B583B0164B1B78D8
:10B53000002B04D1154940F2171000F05FFD124BAB
:10B54000DB68002B04D111494FF48C7000F056FDDC
:10B5500000238DF807300DF107031846FDF7D0FCE6
:10B56000094BDB68013B084AD360074BDB68002BC3
:10B5700001D1FFF76FFF9DF807301846FDF7D6FCA5
:10B5800000BF03B05DF804FB54E30020040F030088
:10B5900000B585B003468DF807309DF80730002BC5
:10B5A00002D10C4B039301E00B4B03930398FFF77D
:10B5B000ABFF0290029B002B06D0029B5B689DF8BC
:10B5C000072010469847F1E700BF00BF05B05DF8BF
:10B5D00004FB00BF5CE3002064E3002000B583B0FF
:10B5E00003468DF807309DF80730002B05D10A4B34
:10B5F00001225A700020FFF7CBFF9DF80730012B86
:10B6000005D1054B01229A700120FFF7C1FF00BF51
:10B6100003B05DF804FB00BF54E3002000B583B025
:10B6200001900091019B002B05D1054B01225A701E
:10B630000020FFF7ADFF00BF03B05DF804FB00BFC3
:10B6400054E3002000B585B0034600918DF8073023
:10B650009DF80730032B29D0032B35DC002B02D0BB
:10B66000012B04D030E00020FFF7C6FE2DE00023C0
:10B670008DF80F300DF10F031846FDF741FC154B07
:10B680001B7883F00103DBB2002B01D0FFF702FF30
:10B69000104BDB6801330F4AD3600E4B01229A70C6
:10B6A0009DF80F301846FDF741FC0EE0094B1B7862
:10B6B000002B04D1084940F2522000F09FFC00F01A
:10B6C0005DF9FFF731FF00E000BF00BF05B05DF896
:10B6D00004FB00BF54E30020040F030082B00346C4
:10B6E0008DF807309DF90730002B0CDB9DF80730F3
:10B6F00003F01F0205499DF907305B09012000FA9C
:10B7000002F241F8232000BF02B0704700E100E0E0
:10B7100082B0034600918DF807309DF90730002B69
:10B720000ADB009BDAB20C499DF907305201D2B214
:10B730000B4483F800230BE0009BDAB207499DF825
:10B74000073003F00F03043B5201D2B20B441A76C8
:10B7500000BF02B0704700BF00E100E000ED00E074
:10B7600082B00190019B1B0B5BB2184602B0704780
:10B7700000B583B003460A468DF8073013468DF8AE
:10B7800006309DF80630012B03D99DF80630032BB7
:10B790000BD99DF80630042B03D99DF80630072BF2
:10B7A00003D908496B2000F029FC9DF806209DF97B
:10B7B000073011461846FFF7ABFF00BF03B05DF836
:10B7C00004FB00BF600F030000B583B003468DF893
:10B7D00007309DF907301846FFF780FF00BF03B020
:10B7E0005DF804FB82B003468DF807300F4A9DF9DF
:10B7F0000730002B00DA1F335B115BB252F82320B5
:10B800009DF90730594203F01F0301F01F0158BF93
:10B810004B425BB222FA03F303F00103002B14BF87
:10B8200001230023DBB2184602B0704700E100E0BC
:10B8300082B001904FF08042019BC2F8083300BFF4
:10B8400002B0704782B003468DF807309DF807308C
:10B8500003F1804301221A6000BF02B0704784B038
:10B860000346ADF80630BDF8063003F180430022F0
:10B870001A60BDF8063003F180431B680393039BF5
:10B8800000BF04B0704782B00346ADF80630BDF883
:10B89000063003F180431B68002B14BF01230023F3
:10B8A000DBB2184602B0704782B001904FF0804280
:10B8B000019BC2F8183500BF02B070474FF08043BB
:10B8C000D3F818341B0C03F00103002B14BF012321
:10B8D0000023DBB21846704700B583B006238DF80D
:10B8E00007304FF08040FFF73BFF03461846FFF755
:10B8F00079FF034683F00103DBB2002B13D04FF036
:10B900008040FFF72DFF03461A469DF80730194681
:10B910001046FFF72DFF4FF08040FFF721FF034651
:10B920001846FFF751FF00BF03B05DF804FB0000AD
:10B9300000B585B00190019B002B03D10D49A420D7
:10B9400000F05CFB002303930B4B1B79002B02D010
:10B950008523039308E0084A019B1360064B0122EC
:10B960001A71054B00225A71039B184605B05DF809
:10B9700004FB00BF980F030068E3002008B5074BE5
:10B980001B79002B03D10649BD2000F037FBFFF7E0
:10B99000A3FF0120FFF788FF00BF08BD68E3002078
:10B9A000980F030008B50D4B1B79002B03D10C49F0
:10B9B000F72000F023FB0220FFF73AFF4FF48270DC
:10B9C000FFF74DFF0C20FFF73DFF00BFFFF776FFAD
:10B9D0000346002BFAD100BF00BF08BD68E300207A
:10B9E000980F030008B54FF48070FFF74CFF034633
:10B9F000002B14D04FF48070FFF731FF0120FFF7C8
:10BA000017FF114B5B7983F00103DBB2002B06D0EB
:10BA10000D4B01225A710C4B1B68002098474FF4C4
:10BA20008270FFF730FF0346002B0AD04FF482707C
:10BA3000FFF715FF0220FFF7FBFE034B1B680120F9
:10BA4000984700BF08BD00BF68E3002000B583B081
:10BA50000346ADF80630BDF80630184600F026F86B
:10BA600003461B68012B0CBF01230023DBB21846E1
:10BA700003B05DF804FB00B585B00346ADF80630B1
:10BA8000BDF80630184600F011F803461A460023A8
:10BA90001360BDF80630184600F008F803461B682E
:10BAA0000393039B00BF05B05DF804FB82B003461F
:10BAB000ADF80630BDF8063003F1804303F5C0430E
:10BAC000184602B07047000082B00190034BD3F8D3
:10BAD0000423019B1340184602B0704700600040E9
:10BAE00082B00190054A019B03F5A27352F82330FE
:10BAF0001B0A03F03F03184602B070470060004085
:10BB000082B00190064A019B03F5A27352F82330DC
:10BB10001B0C03F00303DBB2184602B0704700BFF2
:10BB20000060004000B583B00190019B1B6818467F
:10BB300000F0AAF80346002B04D10B494FF4F6702D
:10BB400000F05CFA019B1B681F2B02D84FF0A0434A
:10BB500006E0019B1B6803F01F02019B1A60034B68
:10BB6000184603B05DF804FB2410030000030050E6
:10BB700000B585B001900B468DF8033001AB184637
:10BB8000FFF7D0FF0390019A039B02F5E07253F890
:10BB90002230019A23F44031039B02F5E07243F80E
:10BBA0002210019A039B02F5E07253F822309DF8AF
:10BBB000032012041146019A1943039B02F5E07217
:10BBC00043F8221000BF05B05DF804FB00B585B056
:10BBD000019001AB1846FFF7A5FF0390019A039B64
:10BBE00002F5E07253F822301B0C03F00303DBB2C2
:10BBF000184605B05DF804FB88B0039002910192ED
:10BC0000164A05AB92E8030083E80300039B079301
:10BC100019E0079B9B0020336B4453F80C3CD3F88E
:10BC20002025019B1A60079B9B0020336B4453F82F
:10BC30000C3C019A1268C3F82025019B0433019340
:10BC4000079B01330793039A029B1344079A9A4276
:10BC5000DFD300BF00BF08B0704700BF541003001F
:10BC600000B585B0019001AB1846FFF75BFF03906C
:10BC7000019B012202FA03F31A46039BC3F8202515
:10BC800000BF05B05DF804FB84B00190019B5B0927
:10BC9000029300230393029B002B03D0029B012BF2
:10BCA00004D007E04FF0FF33039303E04FF6FF7338
:10BCB000039300BF019B03F01F030193039A019BB1
:10BCC00022FA03F303F00103002B14BF0123002326
:10BCD000DBB2184604B0704784B001900091009B1D
:10BCE0000393019BDB080293019B03F0070301937D
:10BCF0000122019B02FA03F30399029A0A44127883
:10BD00001340184604B0704782B00190044A019B6A
:10BD10001344303393F90030184602B0704700BF27
:10BD200070E3002082B00190034A019B52F8233057
:10BD3000184602B0704700BF70E3002084B0019045
:10BD4000074A019B1344603393F900308DF80F309C
:10BD50009DF80F3023F0C003184604B0704700BFB1
:10BD600070E3002084B00190074A019B13446033C4
:10BD700093F900308DF80F309DF80F309B09DBB23E
:10BD8000184604B0704700BF70E3002000B585B0CE
:10BD90000190019A02210020FFF72EFF0023039358
:10BDA0000BE0039B9B00019A13441B68002B01D0FE
:10BDB000012306E0039B01330393039B012BF0D97E
:10BDC0000023184605B05DF804FB000000B587B0FD
:10BDD0000190002305935BE0344A059B13446033D4
:10BDE00093F90030B3F1FF3F4ED00598FFF7A6FF5F
:10BDF000049001990498FFF76FFF0346002B44D08D
:10BE00000598FFF7AFFF03468DF80F300498FFF752
:10BE1000DDFE03468DF80E309DF80E30022B01D169
:10BE2000032300E002238DF80D309DF80D301946F4
:10BE30000498FFF79DFE0498FFF712FF0498FFF7A0
:10BE400063FF03461846FFF76DFF0290029B002B2D
:10BE50001BD09DF80F30032B0FD09DF80E30022B16
:10BE600003D19DF80F30012B07D09DF80E30032B26
:10BE70000BD19DF80F30022B07D19DF80F20029BAC
:10BE800011460498984700E000BF059B01330593D5
:10BE9000059B032BA0D90198FFF778FF0346002BE1
:10BEA00097D100BF00BF07B05DF804FB70E300202E
:10BEB00000B58BB00023089301AB00221A605A60D2
:10BEC0004FF48073ADF81A300123099300230793D0
:10BED00021E0BDF81A301846FFF7B8FD0346002BE5
:10BEE0000ED00998FFF7F0FD0346002B08D0BDF8EF
:10BEF0001A301846FFF7BFFD089A099B13430893B1
:10BF0000099B5B000993BDF81A300433ADF81A3071
:10BF1000079B01330793079B072BDAD94FF4BE70B9
:10BF2000FFF794FD0346002B0DD04FF4BE70FFF7D2
:10BF3000A2FD089B43F00043089301AB1A4602217F
:10BF40000020FFF759FE089BDBB2002B29D001230C
:10BF500009930023079321E0099A089B1340002BC3
:10BF600016D00798FFF7BCFD05900798FFF7C8FDAE
:10BF700003468DF813300798FFF7D4FE0390039B18
:10BF8000002B05D09DF81320039B11460598984778
:10BF9000099B5B000993079B01330793079B072BC2
:10BFA000DAD9089B002B03DA01AB1846FFF70EFF26
:10BFB00000BF0BB05DF804FB08B5064B1B68002BF7
:10BFC00003D10549512000F019F8024B1B6898472E
:10BFD00000BF08BDDCE30020C410030075DF70471C
:10BFE00000BF184676DF704700BF18467FDF7047F6
:10BFF00000BF18468FDF704700BF184600B583B0FA
:10C0000003460091ADF80630BDF80630009A194697
:10C010000348FCF72FFB00BF03B05DF804FB00BF33
:10C02000EFBEADDE00B583B00190044A77210198E0
:10C03000FCF720FB00BF03B05DF804FB70130300A6
:10C0400000B583B0084802F0EBFF0190019B00931C
:10C05000009B002B04D0054A81210098FCF70AFBC5
:10C0600000BF03B05DF804FB30E50020701303004F
:10C0700070B58AB00590059B1B78062B13D0062B54
:10C0800044DC042B34D0052B40D1059B5B6808931E
:10C09000089B0793079B002B3AD01F4A9A210798C9
:10C0A000FCF7E8FA34E0059B5B6809931B4A1C4BDC
:10C0B000D31ADB081B0443F00300099B5B781D4681
:10C0C000099B9B781E46099BDB781A46099B1B79C6
:10C0D0001946099B5B791C46099B9B790393029443
:10C0E0000191009233462A460E49FBF744FE10E0C8
:10C0F0000A4A0B4BD31ADB081B0443F003030A491B
:10C100001846FBF7D5FDFFF79BFF02E000BF00E0FC
:10C1100000BF00BF0AB070BD70130300BCFF020077
:10C1200094FF0200C8130300F813030000B589B0A0
:10C130006B4610220021184603F0C3FE01238DF840
:10C14000043001238DF80C306B461A4A19461A4800
:10C1500002F00EFF0790079B0693069B002B04D06E
:10C16000164AC5210698FCF785FA154A032112489C
:10C1700002F076FD0790079B0593059B002B04D0EA
:10C180000E4AC8210598FCF775FA002204210A48D6
:10C1900002F088FD0790079B0493049B002B04D0BA
:10C1A000064ACB210498FCF765FA00BF09B05DF898
:10C1B00004FB00BF71C0020030E5002070130300D3
:10C1C0006C13030000B583B00190019B5B881A4695
:10C1D00013465B001344DB00044A134401991846DC
:10C1E00002F0D2FF00BF03B05DF804FBE4E30020DF
:10C1F00000B585B003900B46ADF80A3008220399CC
:10C200000D4803F035FE0D4A0D4BD31ADB081B0415
:10C2100043F00300084B1B881A46074B5B881946FE
:10C22000054BDB8800930B460649FBF774FD00BF06
:10C2300005B05DF804FB00BF2CED0020BCFF020040
:10C2400094FF02000814030000B587B0019000912C
:10C25000009B1B78022B54D0022B60DC002B02D0F9
:10C26000012B45D05BE0304A304BD31ADB081B046E
:10C2700043F003032E491846FBF71AFD009B59882B
:10C28000009B0E331A46019803F007F90590059BB1
:10C290000493049B002B05D0264A4FF48371049825
:10C2A000FCF7E8F9204A214BD31ADB081B0443F0C2
:10C2B000030321491846FBF7FBFC019803F0D0F873
:10C2C0000590059B0393039B002B05D0194A40F270
:10C2D00009110398FCF7CEF9134A144BD31ADB0863
:10C2E0001B0443F0030315491846FBF7E1FC16E075
:10C2F000009B9A68009B9B8919461046FFF778FFC0
:10C300000DE0094A094BD31ADB081B0443F0030371
:10C310000B491846FBF7CCFCFFF792FE00BF00BFAD
:10C3200007B05DF804FB00BFBCFF020094FF0200F1
:10C330002414030070130300381403004014030096
:10C340007014030082B003468DF807309DF8073063
:10C35000002B00BF0123184602B0704700B58FB014
:10C3600001900091019B04330B93019B1B883B2B95
:10C3700062DC102BC0F24381103B2B2B00F23F817B
:10C3800001A252F823F000BF41C40200EDC4020034
:10C39000FFC502002DC50200FFC50200FFC5020057
:10C3A000FFC50200FFC50200FFC50200FFC5020075
:10C3B000FFC502000DC50200FFC50200FFC5020057
:10C3C000FFC5020055C50200FFC502007FC502007F
:10C3D000FFC50200FFC50200FFC50200FFC5020045
:10C3E000FFC50200FFC50200FFC50200FFC5020035
:10C3F000FFC50200FFC50200FFC50200FFC5020025
:10C40000FFC50200FFC50200FFC50200FFC5020014
:10C41000FFC50200FFC50200FFC50200FFC5020004
:10C42000FFC50200FFC50200FFC50200FFC50200F4
:10C43000FFC50200B3C50200562B00F0CD80DEE040
:10C44000784A794BD31ADB081B0443F003000B9B9B
:10C450001B881A467549FBF739FC0B9B1B88092B77
:10C4600094BF01230023DBB20693069B002B05D16A
:10C470006F4A40F24D110020FCF7FCF80B9B1B8823
:10C480001A4613465B001344DB006A4A9818019B66
:10C490009B880022194603F000F80D900D9B059330
:10C4A000059B002B05D0624A4FF4A8710598FCF754
:10C4B000E1F80B9B1B881A464FF4BA6302FB03F3A7
:10C4C0005D4A1A44019B9B881946104601F020FBE7
:10C4D0000D900D9B0493049B002B00F09280544A16
:10C4E00040F257110498FCF7C5F88AE04D4A4E4BCC
:10C4F000D31ADB081B0443F003000B9B1B881A466E
:10C500000B9B1B794D49FBF7F2FB87E00B9B1B79DB
:10C51000022B78D1434A444BD31ADB081B0443F067
:10C52000030347491846FBF7C3FB6CE0019B98885F
:10C53000002300228521FFF759FD0D900D9B0793E5
:10C54000079B002B61D03A4A4FF4B8710798FCF76B
:10C5500091F85AE00B9B1A880B9B0433194610463E
:10C56000FFF73CFD0D900D9B0893089B002B4ED0D0
:10C570002F4A40F277110898FCF77CF847E0002337
:10C580008DF80C3000238DF80D30019B9B8803AA99
:10C5900011461846FFF72EFD0D900D9B0993099B40
:10C5A000002B36D0224A40F283110998FCF762F83A
:10C5B0002FE0019B9B8813211846FFF713FD0D9078
:10C5C0000D9B0A930A9B002B25D0194A40F28B1130
:10C5D0000A98FCF74FF81EE0019B9B881321184630
:10C5E000FFF700FD0D900D9B0C930C9B002B14D0BE
:10C5F0000F4A40F293110C98FCF73CF80DE000BF95
:10C600000CE000BF0AE000BF08E000BF06E000BF8A
:10C6100004E000BF02E000BF00E000BF00BF0FB0B9
:10C620005DF804FBBCFF020094FF020080140300CD
:10C6300070130300E4E3002058A20020B4140300A8
:10C64000E414030000B587B003F0A2F80590059B41
:10C650000493049B002B05D0164A40F2A5110498C0
:10C66000FCF708F80023019301AB1946012003F001
:10C6700047F90590059B0393039B002B05D00D4ABA
:10C6800040F2AB110398FBF7F5FF01AB184603F03E
:10C6900055FA0590059B0293029B002B05D0054A95
:10C6A00040F2AF110298FBF7E5FF00BF07B05DF85D
:10C6B00004FB00BF7013030000B583B0019000912C
:10C6C000009B1B8840F6772293421FD1114A124BE0
:10C6D000D31ADB081B0443F0030310491846FBF789
:10C6E000E7FA009B9B88033B9AB20D4B1A80094ADC
:10C6F000094BD31ADB081B0443F00300084B1B88CB
:10C700001A46074B1B880749FBF7F1FA00BF03B035
:10C710005DF804FBBCFF020094FF02000415030057
:10C72000A0DC00202015030000B585B01149124897
:10C7300001F0A2FC0390039B0293029B002B05D007
:10C740000E4A40F2C9110298FBF794FFF7210A48FC
:10C7500001F0BDFC0390039B0193019B002B05D0CE
:10C76000064A4FF4E6710198FBF784FF00BF05B05D
:10C770005DF804FBB9C60200D4E400207013030086
:10C7800000B589B01A4B01931A4B02931A4B0393CD
:10C79000002306931AE0069A13465B001344DB005D
:10C7A000164A134401AA1146184602F081FD07906B
:10C7B000079B0493049B002B05D0114A4FF4F071A2
:10C7C0000498FBF757FF069B01330693069B092B42
:10C7D000E1D9079B0593059B002B05D0084A4FF430
:10C7E000F2710598FBF746FF00BF09B05DF804FB46
:10C7F00049C2020025C002008CDC0020E4E30020D6
:10C800007013030000B583B0FCF7B2FA0190019BEE
:10C810000093009B002B05D0044A4FF4F771009859
:10C82000FBF728FF00BF03B05DF804FB70130300A3
:10C8300000B583B04FF480410020FAF761FF01900A
:10C84000019B0093009B002B05D0064A4FF4FB711F
:10C850000098FBF70FFFFAF7E9FE00BF03B05DF8A1
:10C8600004FB00BF7013030000B583B0FDF75AFF4F
:10C870000190019B0093009B002B05D0044A40F2DD
:10C8800002210098FBF7F6FE00BF03B05DF804FB41
:10C890007013030000B585B06B46082200211846CE
:10C8A00003F00FFB0B4B00930B4B01936B461846A9
:10C8B00001F06AF80390039B0293029B002B05D0C2
:10C8C000064A40F211210298FBF7D4FE00BF05B0E2
:10C8D0005DF804FBC5C102008CDC0020701303006E
:10C8E00008B5FBF773FA034683F00103DBB2002BB4
:10C8F00001D0FDF72DFF00BF08BD000008B5FFF710
:10C9000097FFFFF77FFFFFF7C5FFFFF7ADFFFFF7CB
:10C9100099FEFFF709FFFFF733FFFFF707FC084A0F
:10C92000084BD31ADB081B0443F0030306491846DF
:10C93000FBF7BEF9FFF784FBFFF7D2FFFCE700BF70
:10C94000BCFF020094FF02004815030082B0204B98
:10C950000193019B02221A61019B02225A61019BF1
:10C960001C4A9A61019B1C4ADA61019B4FF40072D8
:10C970001A62019B00229A62019B00225A62019B6B
:10C980000022DA62019B134A9A64019B134ADA641B
:10C99000019B10221A65019B00229A65019B0022CF
:10C9A0005A65019B0022DA65019B07330C4A106827
:10C9B0001860019B0B4A10681860918892799980E1
:10C9C0009A71019B20229A7100BF02B0704700BF8C
:10C9D00034ED00206C150300ACED0020ACEF00201E
:10C9E000781503007C15030000B589B0039002910F
:10C9F000019200230693039BDB680593039B1B694D
:10CA00000493049A059B9A4205D9049A059BD31A6C
:10CA1000013B079307E0039B9A680499059BCB1A97
:10CA20001344013B0793039B9A68059BD31A079A0B
:10CA3000934228BF13460793079A019B934228BF4E
:10CA400013460793039B5A68059B1344079A029960
:10CA5000184603F00DFA069A079B13440693029AB0
:10CA6000079B13440293019A079BD31A0193059ADB
:10CA7000079B13440593039B9B68059A9A4201D137
:10CA800000230593039B059ADA60019B002BB5D127
:10CA9000069B184609B05DF804FB00B589B0039009
:10CAA00002910192039BDB680793039B9A68079BA3
:10CAB000D31A0693069A019B9A420ED9039B5A6891
:10CAC000079B1344019A0299184603F0D1F9079A7B
:10CAD000019B1A44039BDA601AE0069B0593039BB3
