:020000022000DC
:1070000000000420757302005D73020049780200DD
:1070100061730200637302006573020000000000E8
:107020000000000000000000000000009D7C020045
:107030006973020000000000BD7C02006D73020055
:10704000619602006F73020071960200859A020039
:10705000959A02006F7302000D9402006F73020094
:107060006F7302006F7302006F7302006F73020090
:107070006F7302006F7302006F7302006F73020080
:107080006F730200C17D02006F7302006F73020014
:107090006F7302006F73020015B702006F73020076
:1070A0006F7302006F7302006F7302006F73020050
:1070B0006F7302006F730200000000000000000008
:1070C0006F7302006F7302006F7302006F73020030
:1070D0006F7302006F7302006F7302006F73020020
:1070E0006F7302006F7302006F73020000000000F4
:1070F000000000006F730200000000006F730200C8
:10710000000000000000000000000000000000007F
:10711000000000000000000000000000000000006F
:10712000000000000000000000000000000000005F
:10713000000000000000000000000000000000004F
:10714000000000000000000000000000000000003F
:10715000000000000000000000000000000000002F
:10716000000000000000000000000000000000001F
:10717000000000000000000000000000000000000F
:1071800000000000000000000000000000000000FF
:1071900000000000000000000000000000000000EF
:1071A00000000000000000000000000000000000DF
:1071B00000000000000000000000000000000000CF
:1071C00000000000000000000000000000000000BF
:1071D00000000000000000000000000000000000AF
:1071E000000000000000000000000000000000009F
:1071F000000000000000000000000000000000008F
:10720000354936480A1A02D0072291438D4634493F
:1072100034480A1A06D00722914381F309880222D2
:1072200082F3148830483149314A00F044F831483B
:107230003149324A00F03FF831483249324A00F0D1
:107240003AF832483249334A00F035F83248334987
:10725000334A00F030F833483349344A00F02BF811
:1072600033483449344A00F026F83448344900227F
:1072700000F02CF833483449002200F027F8334856
:107280003349091A082902DB002202604160314AB1
:1072900090471F481F49884205D00268043003B454
:1072A000904703BCF7E700208646EC46002000210B
:1072B000294A9047FEE7884207D0521A05D0037842
:1072C00001300B700131013AF9D17047884202D088
:1072D00002700130FAE770470000042000E003204C
:1072E000000004200000042044BA0200E82A002024
:1072F0001C2B0020D0730200D073020088B802005B
:1073000044BA0200E82A0020E82A0020E8B8020077
:10731000E8B80200E8B80200E8B80200E8B80200E5
:10732000E8B80200E8B80200E8B8020044BA020077
:1073300078BA02001C2B00201C2B00201C2B0020E4
:10734000FC520020FC520020FC520020FC52002085
:10735000FC7200209D73020081A00200FEE7FEE7A0
:10736000FEE7FEE7FEE7FEE7FEE7FEE7FEE7FEE7F5
:1073700000F002B8FFF7FCBF0F484FF00701884349
:1073800085460E4880470E48016841F4700101604F
:10739000BFF34F8FBFF36F8FFFF732BF09480A4922
:1073A0000A4A884207D0521A05D0037801300B7080
:1073B0000131013AF9D1704700000420BD79020083
:1073C00088ED00E0E8B80200E82A0020E82A002062
:1073D000F0B58BB00D468DF80400164601A90122C8
:1073E000442000F0E5F8041E15DA234B03AA03F14C
:1073F0001807164618685968154603C50833BB4276
:107400002A46F7D11B882B801A21304600F0FCF861
:1074100020B20BB0F0BD0A2000F0E8F8062201A966
:10742000442000F0D5F8041E14DA144B03AA03F12B
:107430001007164618685968154603C50833BB423D
:107440002A46F7D1998818689B79A9802860AB7182
:107450001721DAE7BDF804305BBA2B80BDF807309E
:107460005BBA338098B22B8823B9B0FA80F0400918
:107470004042CEE70020CCE7E8B8020002B90200A3
:1074800013B5892304460122694644208DF8003053
:1074900000F08EF8002811DB0A2000F0A7F8062281
:1074A0006946442000F094F8002807DB9DF800208E
:1074B0009DF8013003EB02232380002002B010BDB1
:1074C00070B58EB000F06EF800230DF10200ADF83B
:1074D0000230FFF7D5FF0446C8B9BDF80230B3B19A
:1074E000154B01AA03F1280618685968154603C50B
:1074F0000833B3422A46F7D118689B882860AB80CE
:107500002E2101A800F080F820460EB070BD0B4B74
:1075100001AA03F1300518685968144603C40833FA
:10752000AB422246F7D11B782370312101A800F02D
:107530006BF84FF0FF34E7E719B9020047B90200D2
:10754000F7B5002407460E46154601A90DF10602BF
:10755000FD20ADF80440ADF80640FFF739FF40B21A
:10756000A0421BDBBDF80430AF224FF6FF7153433E
:10757000B3FBF1F2A2F12D00C2EB02429B1A0A22E8
:1075800038805343B3FBF1F33380BDF806307D22DE
:107590005343B3FBF1F3063B2B80204603B0F0BD11
:1075A000FFF7CEBF014B1860704700BF1C2B0020B7
:1075B00013B5064B1C6800230093D3B20A4601465C
:1075C000201D02F06DFB40B202B010BD1C2B00204C
:1075D000054B10B51C68D3B20A460146201D02F0C7
:1075E00075FB40B210BD00BF1C2B002038B5054D07
:1075F000642445F001054FF47A40A847013CFAD1D4
:1076000038BD00BF80B9020070471FB5002103904C
:1076100001AA44F20100CDE9011100F003F805B020
:107620005DF804FB72B6094BD3F8F020D20700D501
:1076300000BEBFF34F8FD968054A01F4E0610A43E9
:10764000DA60BFF34F8F00BFFDE700BF00ED00E041
:107650000400FA0510B501F0E7FC037B43B1437B5E
:1076600083F001030373BDE8104083680068184786
:1076700010BD00207047000073B504680E46154623
:1076800002B3237B03BB6168F1B91022204604F0EA
:10769000C8F8002E0CBF0123002363730B4BA560B9
:1076A00018BF0122009308BF0022094823464FF467
:1076B0007A7101F075FB0028606014BF00200E2075
:1076C00002B070BD0720FBE70820F9E755760200FD
:1076D00086B90200F0B5456887B00446002D45D054
:1076E000067B2EBB0260EFF305831BB30A460096B0
:1076F00005AB09212846059601F06CFB012825D130
:1077000001F008F80096024605AB0621284601F074
:1077100061FB01281AD1059B43B1154B4FF08052F4
:107720005A6040BFBFF34F8FBFF36F8F01232373A6
:1077300000200CE002270A46009704212846039304
:1077400001F048FB0128039B064602D0042007B045
:10775000F0BD039300F0D8FF039B0097024631462B
:10776000284601F037FB0128E0D0EFE70820EEE7DC
:1077700000ED00E01FB50446406830B3EFF3058329
:10778000D3B10022009203AB0821039201F022FB47
:10779000012801D004200DE0039B43B10C4B4FF0B6
:1077A00080525A6040BFBFF34F8FBFF36F8F0023EB
:1077B0002373184604B010BD0222009203211A461A
:1077C00001F008FB0128F2D0E4E70820F2E700BF4F
:1077D00000ED00E070B5EFF3108672B60C4A9468C5
:1077E00001239CB993600B4B0B4DD3F880102940BB
:1077F0001160C3F88050D3F8841051604FF0FF320D
:10780000C3F88420047006B962B670BD0370FAE74D
:10781000202B002000E100E0FC06FFBD084B9A6829
:1078200010B55AB150B9EFF3108172B6054A1C6811
:1078300014605C685460986001B962B610BD00BF06
:10784000202B002000E100E01EF0040F1CBFEFF32E
:1078500009800AE0EFF308800549064A884201D80A
:10786000904202D88D464FF00000034B18470000AD
:107870000000042000E00320A1780200BFF34F8F36
:107880000549064BCA6802F4E0621343CB60BFF3BC
:107890004F8F00BFFDE700BF00ED00E00400FA05D8
:1078A00008B5034B9A6ADB6AFFF7E8FF08BD00BF23
:1078B00000ED00E001F01F024B090121914000EBB7
:1078C000830000F013B801F01F0301229A404B0916
:1078D00000EB8300D14300F015B84B0901F01F0104
:1078E00050F82300C84000F00100704710B503466F
:1078F00053E8002F42EA010043E8000494F0000F2F
:10790000F6D110BD10B5034653E8002F02EA01007E
:1079100043E8000494F0000FF6D110BD064B10B5FB
:1079200000241C70054B1C60BFF35F8F04490548A1
:1079300000F00AF8204610BD342B0020382B002020
:1079400088B902002C2B00200B684A6843609342E0
:1079500008BF0023016008BF43607047436843B11C
:107960000268916852680B449342436004BF00234D
:10797000436070474FF08053D3F83001A0F1080303
:1079800058425841704700004FF08053D3F83021DF
:10799000082A06D1D3F83431052B02D8024AD05C2C
:1079A00070470020704700BF9AB90200024AD2F81F
:1079B0000034002BFBD0704700E0014010B5FFF70A
:1079C000D9FF40B14FF080430022C3F80C21C3F827
:1079D0001021C3F83825FFF7CDFF002846D04FF01F
:1079E0008052654BD2F80414C3F82015D2F808145D
:1079F000C3F82415D2F80C14C3F82815D2F81014C3
:107A0000C3F82C15D2F81414C3F83015D2F8181492
:107A1000C3F83415D2F81C14C3F84015D2F820145A
:107A2000C3F84415D2F82414C3F84815D2F8281422
:107A3000C3F84C15D2F82C14C3F85015D2F83014F2
:107A4000C3F85415D2F83414C3F86015D2F83814BA
:107A5000C3F86415D2F83C14C3F86815D2F8401482
:107A6000C3F86C15D2F84424C3F87025FFF78CFFD7
:107A700018B1424B424AC3F88C26FFF785FF18B174
:107A8000404BFB22C3F81825FFF77EFF70B14FF083
:107A900080414FF08053D1F8E42ED3F8583222F0D1
:107AA0000F0203F00F031343C1F8E43EFFF76CFF2E
:107AB00020B1354B4FF40072C3F84026FFF75AFF50
:107AC00048B14FF08043D3F80024D20744BF6FF091
:107AD0000102C3F800242D4AD2F8883043F4700321
:107AE000C2F88830BFF34F8FBFF36F8F4FF08053D2
:107AF000D3F83021082A0ED1D3F83431052B02D81F
:107B0000234AD35C3BB14FF01023D3F808224FF047
:107B10008043C3F858254FF01023D3F80022002AE1
:107B200003DBD3F80432002B22DA1A4901234FF089
:107B30001020C1F804351224FFF738FFC0F80042C6
:107B4000FFF734FFC0F80442FFF730FF0023C1F80D
:107B50000435FFF72BFFBFF34F8F0C490E4BCA685C
:107B600002F4E0621343CB60BFF34F8F00BFFDE729
:107B70000A4B0B4A1A6010BD00C000400050004084
:107B80004881030000F000400090024000ED00E05A
:107B900094B9020000E001400400FA05E82A002040
:107BA0000090D00338B5430704461CBF20F00704FB
:107BB000083400F0A1FD0C4A13681BB90B4B23F0ED
:107BC000070313600A490B6841F6F7701C448442AE
:107BD00008D8A34206D215680C601D4400F020FEB0
:107BE000284638BD0025F9E73C2B0020482B002013
:107BF000404B0020704700F108034FF0FF32C0E90E
:107C00000223436003610023036070470023036184
:107C1000704743684B609A688A609A6851609960BF
:107C20000368086101330360704730B50C68631C5A
:107C30000AD103695A684A6091608B605960036891
:107C400008610133036030BD00F108021346526839
:107C50001568A542FAD9EDE7D0E9011203698A60F7
:107C600051605968814208BF5A60002202611A6857
:107C7000013A1A60186870470748006880F308885E
:107C800062B661B6BFF34F8FBFF36F8F4FF4F070E2
:107C900080F3118800DF00BF00700200064B1968F6
:107CA0000868B0E8F04F80F30988BFF36F8F4FF09A
:107CB000000080F311887047584B0020EFF30980D3
:107CC000BFF36F8F144B1A681EF0100F08BF20ED22
:107CD000108A20E9F04F10604DF8043D4FF040004D
:107CE00080F31188BFF34F8FBFF36F8F00F048FE12
:107CF0004FF0000080F3118808BC19680868B0E8EC
:107D0000F04F1EF0100F08BFB0EC108A80F3098806
:107D1000BFF36F8F704700BF584B0020402383F3A1
:107D20001188FEE74FF0807340E90213054B40F8DD
:107D30000C3C6FF0020340F8202C40F8243C4438FF
:107D4000704700BF1D7D02000F4C08B5E02384F88A
:107D5000223000F06DF80D4B00221A60D4F8883004
:107D60000B4A43F47003C4F88830536B43F040432C
:107D70005363236943F010032361FFF77DFF402322
:107D800083F31188FEE700BF00ED00E0444B0020C4
:107D900000EF00E0402383F31188024A13680133A7
:107DA00013607047444B0020034A1368013B136083
:107DB0000BB983F311887047444B002041DF7047B3
:107DC00073B5194B0022C3F84021D3F8401101913B
:107DD0000199EFF31186402181F31188D3F804450E
:107DE000C3F80021D3F800310093009B00F08CFC15
:107DF000201A20F07F4424F0010020B100F0A2FE00
:107E0000022818BF01240025013C09D225B1074BE7
:107E10004FF080525A6040BF86F3118802B070BDA7
:107E200000F086FC0543EFE70010014000ED00E0A4
:107E300008B5002001F052F9094B1F22C3F80825AC
:107E40000122C3F804239A601A600222C3F8442373
:107E5000044BE02283F811234FF400321A6008BD6E
:107E60000010014000E100E02DE9FF410746EFF37B
:107E7000108072B63F4DAB6883B90123AB603E4BB7
:107E80003E49D3F880200A402A60C3F88010D3F816
:107E900084206A604FF0FF32C3F8842000B962B6D4
:107EA000374CD4F8048500F033FE002850D0354E0E
:107EB000BE4228BF3E4606EB080323F07F43012263
:107EC000C4F80823C4F840350023C4F84031D4F87E
:107ED00040310193019B4FF48033C4F80433BFF366
:107EE0004F8F87B103F058FB40B9234B20BFD3F825
:107EF0000011D3F804210A43F8D004E0FFF75EFF35
:107F000008B1FFF782FB4FF48033C4F80833002335
:107F1000C4F84031D4F840210392039AC4F80031E8
:107F2000D4F800310293029B0123C4F80433D4F83F
:107F30000405114BA0EB080020F07F40B0424FF445
:107F4000003228BF3046C3F8802108B100F0E8FBBA
:107F5000AB685BB1EFF3108272B6074B296819600A
:107F6000696859600023AB6002B962B604B0BDE82D
:107F7000F08100BF202B002000E100E0FC06FFBDE7
:107F800000100140FDFFFF0010B50446FFF702FF9F
:107F9000A46BFFF709FFB4FA84F0400910BDF8B5EF
:107FA0001546026C866B044652B9076847BB4068A9
:107FB00000F0D8FD676005460136A6632846F8BD87
:107FC00065B9806803F004FCA368226C13446268FE
:107FD000A3609342F0D32368A360EDE7C06803F089
:107FE000F7FB226CE36851429B1A2268E3609342DC
:107FF0003EBF63685B18E360022D01D116B1013EFC
:108000000025D9E73546D7E7034610B41A6C084671
:108010006AB1DC68596814448C4228BF1968DC6076
:1080200028BFD960D9685DF8044B03F0D1BB5DF877
:10803000044B704770B50446FFF7ACFE94F845500A
:1080400004F124066DB2002D14DCFF2384F84530C2
:10805000FFF7AAFEFFF79EFE94F8445004F11006C5
:108060006DB2002D12DCFF2384F84430BDE870406F
:10807000FFF79ABE636A002BE7D0304600F0D2FCCF
:1080800008B100F03FFD013D6DB2DCE72369002B34
:10809000E9D0304600F0C6FC08B100F033FD013DE8
:1080A0006DB2DEE738B504460D46FFF773FED4E93E
:1080B0000F312268A2604B43D0185B1A13446060F2
:1080C000E3600020FF23A06384F8443084F8453047
:1080D0009DB923696BB104F1100000F0A3FC40B11D
:1080E0000A4B4FF080525A6040BFBFF34F8FBFF32F
:1080F0006F8FFFF759FE012038BD04F11000FFF724
:108100007AFD04F12400FFF776FDF2E700ED00E0D0
:1081100070B50646484348300D46FFF743FD044618
:1081200048B155B100F14803C4E90F65236001214E
:108130002046FFF7B7FF204670BD0346F4E7000076
:108140002DE9FF474FF00008DFF8F8A00192044640
:108150000F461E46C146FFF71DFEA26BE36B9A4217
:1081600001D3022E1AD1324639462046FFF717FFB7
:10817000636A1BB104F1240000F054FC40B1314BA0
:108180004FF080525A6040BFBFF34F8FBFF36F8FE5
:10819000FFF70AFE012004B0BDE8F087019D1DB97C
:1081A000FFF702FE0020F6E7B8F1000F02D102A8A7
:1081B00000F074FCFFF7F8FD00F09EFAFFF7EAFD0F
:1081C00094F84430FF2B08BF84F8449094F845306D
:1081D000FF2B08BF84F84590FFF7E6FD01A902A830
:1081E00000F068FC38BBFFF7D5FDA26BE36B9A4249
:1081F0000FD1FFF7D9FD019904F1100000F0EEFB5B
:108200002046FFF717FF00F00BFB50B14FF00108BD
:10821000A1E7FFF7C9FD2046FFF70CFF00F000FBC8
:10822000F4E74FF08053CAF8043040BFBFF34F8FDC
:10823000BFF36F8FEAE72046FFF7FCFE00F0F0FA8D
:10824000B0E700BF00ED00E0F8B504461746EFF3D5
:108250001186402282F31188806BE26B904201D339
:10826000022B1ED194F845501A466DB22046FFF7F6
:1082700096FE6B1C10D1636A0BB9012009E004F172
:10828000240000F0CFFB0028F7D0002FF5D001200C
:10829000386086F31188F8BD01356DB284F8455019
:1082A000EBE70020F5E700002DE9F04385B000275B
:1082B000DFF8E490019204460E46B846FFF76AFDE7
:1082C000A56BDDB131462046013DFFF79DFEA5635C
:1082D00023696BB104F1100000F0A4FB40B12E4BF8
:1082E0004FF080525A6040BFBFF34F8FBFF36F8F84
:1082F000FFF75AFD012005B0BDE8F083019D1DB9CF
:10830000FFF752FD0020F6E717B902A800F0C6FB00
:10831000FFF74AFD00F0F0F9FFF73CFD94F8443018
:10832000FF2B08BF84F8448094F84530FF2B08BF2A
:1083300084F84580FFF738FD01A902A800F0BAFBD8
:10834000F8B92046FFF720FEA8B1019904F12400F6
:1083500000F044FB2046FFF76DFE00F061FA40B9E3
:108360004FF08053C9F8043040BFBFF34F8FBFF3C5
:108370006F8F0127A2E72046FFF75CFE00F050FA5E
:10838000F7E72046FFF756FE00F04AFA2046FFF7CF
:10839000FBFD0028EDD0B5E700ED00E0054B1A68C5
:1083A00012B19A682AB9012243F8321003EBC203D2
:1083B00058607047484B002070B504460D4616467D
:1083C000FFF7E8FC94F84430FF2B04BF002384F847
:1083D000443094F84530FF2B04BF002384F8453027
:1083E000FFF7E2FCA36B2BB93246294604F12400C7
:1083F00000F004FB2046BDE87040FFF71BBE000004
:10840000F8B51A4B1A4E1D680446306804300F4602
:10841000FFF722FC40B932681649D06A0B68012286
:10842000824023EA02030B60631C07D137B1316835
:108430001148BDE8F8400431FFF7EBBB33682C1955
:108440005C6007D30D4B18683168BDE8F840043113
:10845000FFF7EBBB0A4B186831680431FFF7E5FB07
:10846000084B1A68A24288BF1C60F8BD2C4C002043
:10847000584B0020B44B0020044C0020604B0020DF
:108480005C4B0020E44B0020094B0A4A1B68126831
:10849000D06A58B9084A1268012A08D8012B06D8B0
:1084A000064B1868064B1B68C01A704700207047BF
:1084B000B44B0020584B0020644B0020E44B0020BC
:1084C0002C4C0020064A13681968064B19B94FF066
:1084D000FF321A6070471268D268D2685268F8E7B3
:1084E0005C4B0020E44B00202DE9F84F9500074637
:1084F00028460E469846FFF755FB8146002800F0B7
:108500009E804820FFF74EFB0446002800F0948030
:10851000C0F830902A46A521484603F082F9D4F8E5
:1085200030B0731E04F13402033613F8011F02F851
:10853000011B09B19E42F8D10A9E022E28BF0226D5
:108540004FF0000A04F10409C4E90E6AE6624846E5
:1085500084F837A0043DFFF759FBC6F1030604F188
:1085600018005D44FFF752FBC4F840A02461A661E7
:10857000646284F844A04246394625F00700FFF7BC
:10858000D1FB0B9B206003B11C60FFF703FC324B57
:10859000324E1A68324F01321A603268002A51D1C5
:1085A00034601B68012B1FD12E48DFF8E8802E4D68
:1085B000FFF721FB2D48FFF71EFB2D48FFF71BFBA4
:1085C0004046FFF718FB2846FFF715FB2948FFF741
:1085D00012FB2948FFF70FFB2848FFF70CFB284B3D
:1085E000C3F80080274B1D60274A28491368086894
:1085F00001331360E26A012505FA02F303430B60BD
:10860000184B142000FB02304946FFF702FBFFF72E
:10861000CBFB3B686BB13368DA6AE36A9A4208D2F3
:108620001B4B4FF080525A6040BFBFF34F8FBFF3D8
:108630006F8F2846BDE8F88F4846FFF7DBFA4FF00A
:10864000FF35F6E73B68002BCED13368DA6AE36A80
:108650009A4298BF3460C7E7A04B0020584B0020D7
:10866000004C0020644B0020CC4B0020784B0020B5
:108670008C4B0020EC4B0020184C0020044C0020B8
:108680005C4B0020604B0020B04B0020B44B00201E
:1086900000ED00E0B84B002013B5114B019300240E
:1086A00010491148009423463C22FFF71DFF012882
:1086B00013D100F059FB01280FD1402383F3118817
:1086C0000A4B4FF0FF321A60094B1860094B1C60CF
:1086D00002B0BDE81040FFF737BB02B010BD00BFCD
:1086E000E04B0020A0B90200FD880200E44B00200E
:1086F000004C00202C4C0020024A13680133136008
:10870000704700BFAC4B0020014B1868704700BF9A
:108710002C4C0020014B1868704700BF2C4C0020E7
:10872000024A136818441060704700BF2C4C0020A8
:108730002DE9F84F2F4B1B68002B54D12E4B1D6891
:1087400001351D605DB92D4A2D4B11681868106008
:108750002C4A1960136801331360FFF7B3FE2A4FE8
:108760003B68AB424FF0000607D9284B1B68002B33
:108770000CBF30460120BDE8F88FDFF88090DFF8AD
:108780009880DFF898A0D9F800301B681BB94FF02B
:10879000FF333B60E9E7D9F80030DB68DC686368E9
:1087A0009D42F6D304F1040B5846FFF755FAA36A2D
:1087B0001BB104F11800FFF74FFAE26AD8F8001075
:1087C0000123934014200B4300FB02A05946C8F834
:1087D0000030FFF71EFA0E4BE26A1B68DB6A9A4212
:1087E00028BF0126CFE70B4A136801331360002628
:1087F000BBE700BFAC4B00202C4C00205C4B0020A2
:10880000604B0020E84B0020E44B0020304C00205F
:10881000584B0020A84B0020B44B0020644B002094
:108820002DE9F341FFF7B6FA2B4B1A68013A1A60AB
:108830001C6834B10024FFF7B7FA204602B0BDE847
:10884000F081264B1B68002BF4D0254D254EDFF818
:10885000A8801FE0EB68DC6804F11800FFF7FCF962
:10886000211D08460191FFF7F7F9E26A3068019986
:10887000012707FA02F30343142000FB0280336050
:10888000FFF7C7F9184BE26A1B68DB6A9A4201D30B
:10889000164B1F602B68002BDCD10CB1FFF712FECA
:1088A000134D2C6844B1114E0127FFF741FF00B171
:1088B0003760013CF9D12C600C4B1B68002BB9D000
:1088C0000C4B4FF080525A6040BFBFF34F8FBFF345
:1088D0006F8F0124AFE700BFAC4B0020A04B0020FE
:1088E000EC4B0020B44B0020584B0020304C0020B3
:1088F000A84B002000ED00E0644B0020F8B51B4CB5
:108900001B4F1C4E2368DBB91B4B1B68012B08D97E
:108910001A4B4FF080525A6040BFBFF34F8FBFF3E6
:108920006F8FFFF7B1FD0128EBD9FFF7E5FEFFF7E9
:10893000ABFD012801D9FFF797FAFFF771FFE0E7D8
:10894000FFF728FAFB68DD68281DFFF785F9336813
:10895000013B33602368013B2360FFF725FA286B56
:10896000FFF748F92846FFF745F9CBE7A44B00206D
:10897000184C0020A04B0020644B002000ED00E0CC
:10898000114B1A68114B30B512B101221A6030BD7B
:108990001A600F4B0F491B68B3FA83F3C3F11F032F
:1089A000142505FB03F288180832446864684460A3
:1089B0000A44944204BF6268426005FB03135B688B
:1089C000DA68054BE2E700BFAC4B0020304C0020DA
:1089D000B44B0020644B0020584B002010B5064BD0
:1089E0000C4619681831FFF720F920460121BDE82F
:1089F0001040FFF705BD00BF584B002038B5084BAD
:108A00000D46196814461831FFF703F9002C21466A
:108A10000CBF28464FF0FF30BDE83840FFF7F0BCF0
:108A2000584B0020C36837B5DC6804F118010846CC
:108A30000191FFF711F9134B01991B6803BB211D2D
:108A400008460191FFF708F90F48E26A05680199A5
:108A5000012393402B4303600C4B142000FB023096
:108A6000FFF7D7F80A4BE26A1B68DB6A9A4285BFB8
:108A7000084B012000201860FFF724FD03B030BD33
:108A80000548EDE7AC4B0020B44B0020644B0020C0
:108A9000584B0020304C0020EC4B0020034B1B684F
:108AA0000360034B1B684360704700BFE84B002026
:108AB0002C4C002070B50C460546FFF76BF90F4BA8
:108AC000196823685A1C10D00D482E6800686A681F
:108AD000864201D08A420FD9881A83420AD95B1A8A
:108AE000134423602846FFF7D9FF0024FFF75CF901
:108AF000204670BD002323600124F7E72C4C0020A2
:108B0000E84B0020014B01221A607047304C0020D6
:108B1000084B186860B9084B1B6853B9074B1868B5
:108B2000074B1B68013B984214BF0120022070478D
:108B300000207047EC4B0020304C0020044C0020FB
:108B4000A04B0020054B1B6833B1054B1B68002B65
:108B50000CBF02200020704701207047004C00200D
:108B6000AC4B0020F7B5044610B9002003B0F0BDAF
:108B7000C36BC16A826B013B9142C363F5D0002B8A
:108B8000F3D1011D08460191FFF766F8104F114A15
:108B9000019950B9E06A14264643BB592BB91368B2
:108BA0000125854023EA05031360A36BE362C3F14B
:108BB0000300A0611068012404FA03F505431420A2
:108BC00000FB03701560FFF724F82046CEE700BFD6
:108BD000644B0020B44B002070B5174C06460D4680
:108BE000FFF7D8F823681B6C83B92368012183F849
:108BF00044105DB12846FFF703FC104B4FF0805244
:108C00005A6040BFBFF34F8FBFF36F8FFFF7CCF8B1
:108C1000FFF7C0F823681D6C1DB123684EB1002218
:108C20001A642368002283F84420FFF7BDF8284621
:108C300070BD6A1EF4E700BF584B002000ED00E055
:108C4000F7B504460E46EFF31187402383F31188EE
:108C5000022390F8442080F84430036C012A03F189
:108C60000103D5B203641DD1144B1B68F3B9011D78
:108C700008460191FEF7F0FF114AE36A1068019976
:108C80009D40054315600F4A142000FB0320FEF7AA
:108C9000C0FF0D4BE26A1B68DB6A9A4202D90123CE
:108CA00046B1336087F3118803B0F0BD00F11801BD
:108CB0000648ECE7064A1360F4E700BFAC4B00201F
:108CC000B44B0020644B0020584B0020EC4B00209C
:108CD000304C0020F8B50F4CFFF75CF82568ADB9B3
:108CE0000D4F0E4E3846FEF786FF3046FEF783FFE7
:108CF0000B4B1F600B4B2A46102120201E60FFF7F4
:108D000007FA206010B10849FFF748FBBDE8F840BA
:108D1000FFF74AB8684C00203C4C0020504C002023
:108D2000344C0020384C0020A5B90200914208B50F
:108D3000416000610AD8D21A83699A420DD2084B69
:108D4000011D1868FEF771FF002008BD9A4201D28C
:108D5000994202D2034B011DF3E70120F5E700BF62
:108D6000384C0020344C002007B5FFF7B3FF084B08
:108D7000186848B1074B019302230093064907483E
:108D800000235022FFF7B0FB03B05DF804FB00BFE7
:108D9000684C00206C4C0020AAB90200AD8E020085
:108DA0002DE9F041804628200F4616461D46FEF765
:108DB000F9FE044658B1FFF78DFF069BC4F800800A
:108DC000C4E9067625626362201DFEF71FFF204678
:108DD000BDE8F0817FB50F4C0546206816461A465F
:108DE00080B10529CDE9001602950DDCFFF7AAFE3A
:108DF0000023022808BF089A206818BF1A4669464F
:108E0000FFF79EF904B070BD00236946FFF71CFA16
:108E1000F8E700BF684C00202DE9FF47DFF88880A5
:108E20000646FFF771FCD8F800308342054634D976
:108E30001B4F4FF000093B681A685AB9194A11686C
:108E400039601360012328463360C8F8005004B02D
:108E5000BDE8F087DB68DC68D3F800A0211D084678
:108E60000391FEF7F9FE636A20469847E369039988
:108E7000012BE0D1A36953449A4505D23868636059
:108E80002461FEF7D2FED6E70023CDF800905246CB
:108E900019462046FFF79EFFCDE70023D3E700BF2A
:108EA000344C0020384C0020644C00202DE9F04761
:108EB000594E88B04FF0000833681D68002D5BD014
:108EC000DB68D3F80090554FFFF716FC04A8FFF7B6
:108ED000A3FF049C8246002C6AD1002D4ED0484549
:108EE00052D3FFF79DFC3368DB68DD68281DFEF771
:108EF000B3FEEB69012B0ED1A9694B46524649449A
:108F00002846FFF713FF30B1009423464A46214616
:108F10002846FFF75FFF6B6A2846984738680022AB
:108F200004A9FFF7C1F90028C6D0049B0698002BBE
:108F300041DB069C6369002B44D103A8FFF76CFF5B
:108F4000049B0246092BE9D801A151F823F000BF88
:108F5000CD8F0200CD8F0200CD8F02001D8F020049
:108F6000FF8F02000F900200CD8F0200CD8F020014
:108F70001D8F0200FF8F0200A946A4E7284B1B6843
:108F80001C68B4FA84F4640938682246A9EB0A0123
:108F9000FFF712FAFFF744FC0028BFD1214B4FF036
:108FA00080525A6040BFBFF34F8FBFF36F8FB5E75A
:108FB000FFF736FCB2E7059B07999847049B002B07
:108FC000ACDBB6E7201DFEF747FEB6E7A169059BBF
:108FD00020461944FFF7AAFE00289FD0636A204666
:108FE0009847E369012B99D1A2690599CDF80080D2
:108FF00000230A4420461946FFF7ECFE8EE7059948
:10900000A161034601442046FFF790FE86E7204613
:10901000FEF7F0FD82E700BF344C0020684C0020D2
:10902000384C002000ED00E013B50446FEF7B2FE18
:10903000206A0190FEF7B8FE019802B010BD000052
:1090400038B5074C051E04F1080318BF1C462368F9
:109050002BB11A6822605B6828469847F7E738BD4D
:10906000784C002020B9054B01225A70FFF7E8BF69
:10907000012802D1014A9070F8E77047704C002037
:1090800020B9034B01225A70FFF7DABF704700BFC7
:10909000704C002038B50E4C2378B3B90D4863608E
:1090A000A3602361E36000F019F9054602F074FA49
:1090B00008B900F01FF901232370074BD3F80034DF
:1090C0000BB10123A370284638BD8525F5E700BF05
:1090D000704C0020659002000000014037B5184C2C
:1090E000A378054603F0FF029BB110B1436801204D
:1090F000984700230DF107008DF80730FEF76AFB53
:10910000E3689DF807000133E360FEF787FB03B0D7
:1091100030BD0DF107008DF80720FEF75BFB25B190
:10912000226913463BB92A602561E368002BE7D129
:1091300000F0F6F8E4E79D42F7D01B68F2E700BFC5
:10914000704C002037B50D4C00230DF107008DF851
:109150000730FEF73FFBE368013BE360E36833B9A8
:10916000074BD3F8005415B900F0E7F8A5709DF847
:109170000700FEF753FB03B030BD00BF704C00206A
:1091800000000140012813B50CD0032820D038B9C5
:10919000134B0122C3F88020BFF34F8FBFF36F8FB3
:1091A00002B010BD0F4C00230DF107008DF8073001
:1091B000FEF710FB23780BB9FFF76CFFE3689DF80F
:1091C00007000133E3600123A370FEF727FBE7E705
:1091D00000F090F802B0BDE81040FFF7B3BF00BF49
:1091E00000E100E0704C002036DF70474DDF704733
:1091F0004EDF70474FDF704710B50446FFF7F8FFAA
:1092000040B92046FFF7F2FF20B92046BDE81040E4
:10921000FFF7F0BF10BD012810B5044602D100F0E1
:10922000C3F9804700F0C6F9034668B10A2C07D09D
:109230000B2C07D0092C07D10220BDE8104018479D
:109240000020FAE70120F8E710BD0000012813B55F
:10925000044603D003281CD002B010BD00230DF13A
:1092600007008DF80730FEF7B5FA00F09DF910B150
:109270002046FFF7B9FF9DF80700FEF7CFFA00F090
:1092800099F90028E8D0012002B0BDE81040FFF7AE
:10929000B3BF0C4BC02283F8002301221A6000F0F8
:1092A00083F920B14FF080430422C3F8042300F077
:1092B00081F90028D0D04FF080434FF46072C3F89A
:1092C0000423C9E700E100E000F18040002382B000
:1092D000036003680193019B02B07047044A13794D
:1092E00023B901211060918018467047852070478E
:1092F000844C0020084B1A68D20704D4C02283F89B
:10930000002301221A604FF080420123C2F8183571
:10931000024A1370704700BF00E100E08C4C00204F
:1093200008B54FF48270FFF7CFFF4FF08043022261
:10933000C3F8042301229A6008BD4FF0804208B5AB
:109340000223C2F808334FF48270FFF7BDFF0123F8
:10935000D360D2F81834DB03FBD408BD4FF0804152
:1093600010B5D1F8003163B14FF48070FFF7ACFF56
:109370000D4B58790122C1F8082310B95A711B68A6
:1093800098474FF08042D2F8043163B14FF48270B5
:10939000FFF79AFF0223C2F80833034BBDE81040E1
:1093A0001B680120184710BD844C002000F180404C
:1093B00000F5C040002382B0036003680193019B65
:1093C00002B0704703681F2B83BF03F01F030360C5
:1093D00001484FF0A04070470003005007B50190CE
:1093E00001A8FFF7EFFF019B00EB8300D0F80037E7
:1093F00023F44033C0F80037D0F8003743EA014186
:10940000C0F8001703B05DF804FB00002DE9FF472A
:109410000024CDE90244584D4FF48072012102F13D
:10942000804303F5C04390B21B68012B06D1D5F8E9
:1094300004330B4202D0FFF7B9FF0C430432B2F5FC
:10944000907F4FEA4101EAD14B4BD3F87C31012B9D
:1094500011D14FF4BE70FFF7A9FF4FF0A04344F0C5
:109460000044D3F820250292C3F82025D3F8202801
:109470000392C3F82028E3B2D3B1404F0126002560
:10948000344210D0AB0003F1804303F5C043D3F85E
:109490001005D3F8101557F8253023B1C1F3014159
:1094A000C0F3052098470135082D4FEA4606E7D15D
:1094B000002C59DA314D324C324E4FF00008012762
:1094C00016F9013B5A1C3CD0C3F3C2011031694468
:1094D0005FFA83F911F8081C03F03F0203F0070359
:1094E00007FA03F319422CD001A80192FFF76AFF93
:1094F000019B03F5E07350F82330C3F3014ABAF13E
:10950000020F0CBF032102211046FFF767FF01A8DD
:109510000192FFF757FF019B07FA03F3C0F82035CC
:10952000AB1893F9303055F8233053B14FEA991105
:10953000032904D0BAF1020F19D1012901D1104633
:10954000984708F10108B8F1040FB9D14FF0A043D2
:10955000D3F820250292C3F82025D4F820350393B0
:10956000C4F820351343A7D104B0BDE8F087BAF1A1
:10957000030FE6D10229E1E700600040904C002093
:1095800000030050F04C002000F1804382B01A68C4
:10959000002A14BF0120002004D000221A601B689A
:1095A0000193019B02B07047014B1868704700BFE0
:1095B000FC4C0020014B1868704700BF044D002090
:1095C0004FF0804310B5D3F80443620707D54FF43A
:1095D0008470FFF7D9FF10B11E4B1B689847A30694
:1095E00008D54FF48A70FFF7CFFF18B11A4B00204F
:1095F0001B689847600608D54FF48C70FFF7C4FFCE
:1096000018B1154B01201B689847210608D54FF467
:109610008E70FFF7B9FF18B1104B00201B689847F8
:10962000E20508D54FF49070FFF7AEFF18B10B4B71
:1096300001201B689847A3050AD54FF49270FFF7E5
:10964000A3FF28B1054BBDE810401B680220184756
:1096500010BD00BFFC4C0020004D0020044D002038
:1096600008B5FFF7ADFFBDE80840FFF777BE000083
:10967000014B1B68184700BF084D00200E4B984255
:1096800037B50C4602D0002003B030BD00230DF1E9
:1096900007008DF80730FEF79DF8084B1D7915B9C6
:1096A00001221C601A719DF80700FEF7B7F8002D23
:1096B000E9D01120E8E700BF00200040084D00205D
:1096C0000023435082B043580193019B02B070477E
:1096D0008B6A4A6B9A4210B54FF0010305D2496A72
:1096E0008A5CC0F81C251A4604E091F82C201AB1B7
:1096F000C3610022104610BD0C6A640603D5C36125
:1097000081F82D30F6E74361EDE770B5D0F80461DC
:1097100005460C4626B14FF48271FFF7D1FF0126B2
:1097200094F82F2022B34FF492712846FFF7C8FF18
:109730004FF48E71FFF7C4FF4FF48471FFF7C0FF41
:10974000002E69D094F82F20002384F82D3092BB8E
:10975000A36A616B99421CBF1646052386F0010679
:109760001CBFC5F80025C5F8003584F82F6023E03C
:10977000D5F824314BB14FF492712846FFF7A0FF82
:1097800001236B6184F82F30DAE7D5F81C31ABB1D7
:109790004FF48E712846FFF793FF636B01336363C9
:1097A000D5F8243113B14FF49271E7E72146FFF762
:1097B0008FFF0028C4D10022104670BDD5F80831B3
:1097C000002BBDD04FF484712846FFF779FFD5F800
:1097D0002431002BE7D1636BA16A8B42B0D2616A5E
:1097E000D5F81805C854636BA16A0133481E83423B
:1097F000636308D1206A400610D40223C5F8003202
:1098000001232B629CE78B42FAD1236A5B0697D532
:10981000022384F82D30CFE70122CDE78B42EFD130
:10982000F6E7000037B5314B01930D464FF48271D6
:10983000FFF746FF4FF49271FFF742FF4FF48E712E
:10984000FFF73EFF4FF48471FFF73AFF0023C0F8A3
:1098500000326B6385F82F300123036295F82D20C9
:109860009A4218BF836029460446FFF731FF2B68F0
:1098700083B140F28623AB60AB68C4F804330020A8
:1098800003B030BD29462046FFF73FFF28B1019BBA
:10989000013B0193019B002BF4DC95F82F0050B99C
:1098A000019B002BECDC0023C4F800350523C4F831
:1098B00000350320E4E7D4F8C434C4F8C43493B1C9
:1098C00013F0010F14BF4FF40240032048F20122AD
:1098D00013F0020F18BF104613F0040F48F20223D2
:1098E00018BF1846DCE70320DAE700BFA0860100B6
:1098F00037B5344B01930D464FF48271FFF7E0FE0C
:109900004FF49271FFF7DCFE4FF48E71FFF7D8FE33
:109910004FF48471FFF7D4FE00236B6385F82F307A
:10992000AB6A012B044617D12B6A5B0614D40223C1
:10993000C4F800320123236295F82D20022A18BFB3
:1099400023602B6893B140F28623AB60AB68C4F808
:109950000433002003B030BD0123E9E72946204647
:10996000FFF7D3FE28B1019B013B0193019B002B24
:10997000F4DC95F82F0050B9019B002BEADC0023A2
:10998000C4F800350523C4F800350320E2E7D4F815
:10999000C434C4F8C43493B113F0010F14BF4FF4AE
:1099A0000240032048F2012213F0020F18BF1046B4
:1099B00013F0040F48F2022318BF1846DCE7032017
:1099C000DAE700BFA0860100F0B587B007460C4675
:1099D000FFF79BFE002846D194F82FC0D4F820E072
:1099E000BCF1000F1FD1237B9A1E012A1BD8616A8C
:1099F000A269914217D1E2696262CEF3401E6269A8
:109A0000A262032B84F82CE084F82DC0214638464E
:109A100004D107B0BDE8F040FFF704BF07B0BDE8D0
:109A2000F040FFF765BF04F10C060FCE01AD0FC586
:109A300033682B60BCF1000F20D0D7F8C434C7F8CE
:109A4000C434990711D501238DF8003000231EF08E
:109A5000040F84F8303002D0BCF1000F03D0D4E9F9
:109A600000316846984707B0F0BD5A0701D5022378
:109A7000EAE7DB074CBF03230423E5E78DF800C0CA
:109A8000E4E7000001490248FFF79EBF104D0020A7
:109A90000030004002494FF04020FFF795BF00BF63
:109AA0004C4D00202DE9F84F07793B4E4FF03C0A12
:109AB0000AFB07FA06EB0A059B4695F82E3080460E
:109AC0000C469146002B63D1344B006853F82710A5
:109AD000FFF7D4FD00285DD12168637B85F838301D
:109AE0001F298CBF01F01F030B4603F5E07388BFED
:109AF0002B4AA86098BF4FF0A04240F20C6C85F84A
:109B0000300042F823C06268C5F804B01F2A8CBF39
:109B100002F01F03134685F82D0085F8310003F588
:109B2000E07388BF1E4D46F80A9098BF4FF0A045DD
:109B300045F823C0D8F80030C3F80815C3F80C2541
:109B4000A268C3F82425B9F1000F14D0227B43F397
:109B5000073152010029C3F30733D2B213DB114C92
:109B6000651885F800230122490903F01F0302FA52
:109B700003F344F821303C2303FB0766012386F8F6
:109B80002E30BDE8F88F084903F00F03CA54F2E7FE
:109B90000820F6E71120F4E7104D0020B4B90200C8
:109BA0000003005000E100E014ED00E003680279DA
:109BB0000521C3F80015044B3C2101FB02330222AE
:109BC00083F82E20704700BF104D00202DE9F0478C
:109BD000314F0479D0F800903C2303FB04730D4609
:109BE00093F82D30012B944604D10B78012B06D12C
:109BF000082011E0022B02D10B78012BF8D13C2672
:109C0000264BC9F8083306FB047696F830302BB1A2
:109C1000B368C9F804331120BDE8F0878CF0040361
:109C2000C3F3800386F83030C6F820C0A846B8E8F1
:109C30000F0006F10C0EAEE80F00D8F80030CEF899
:109C400000306B68B362EB6873626B78C9F8883573
:109C50002B78C4EB041A012B07EB8A0A17D09BB9A7
:109C6000CCF3401C3C2303FB0473514683F82CC007
:109C70004846FFF7D7FD3C235C433A193B59002B7C
:109C8000CAD182F83030C7E74FF0010CEAE75146FD
:109C90004846FFF72DFEEEE7104D002086420400F7
:109CA00010B586B00024CDE902349DF820308DF83F
:109CB0000510A342CDE9042401A914BF20222246A5
:109CC0008DF80440FFF782FF06B010BD10B586B0D6
:109CD000012402930023CDE903328DF805101A46C2
:109CE00001A98DF804400593FFF770FF06B010BD81
:109CF0001FB503788DF800308388ADF80430836891
:109D00008DF80630C3688DF8073003690293436904
:109D1000054A0393054B684653F8213052F8211049
:109D2000984705B05DF804FB884D0020904D002059
:109D3000024B4FF4807043F001031847C0B9020092
:109D40001F2886BF054A00F01F004FF0A0420123E4
:109D500003FA00F0C2F80805704700BF0003005086
:109D60002DE9F047154690F80080394A42F828500E
:109D7000384A42F828304B7B06460C46A3B30868A5
:109D8000DFF8D8904FF0A04100F5E07340F20C628C
:109D900041F82320636803F5E073002741F823208E
:109DA000FFF7CEFF6068FFF7CBFF236803F5E07392
:109DB00040F20D6241F82320636803F5E0734FF031
:109DC000010A41F82320FFF7B3FF63681F2B8ABF06
:109DD0004A464FF0A04203F01F03D2F8102522FAA2
:109DE00003F3DB070BD507BB002D1B4A434608BF17
:109DF0002A462146301DBDE8F047FFF753BE2368D1
:109E00001F2B86BF03F01F034A464FF0A0420AFAF9
:109E100003F3C2F80C35FFF78BFF01372068FFF71B
:109E20008FFFFFF785FF092FCFD163681F2B86BFF8
:109E30000A4903F01F034FF0A041012202FA03F385
:109E4000C1F80C35FFF774FF6068FFF779FFCBE7C7
:109E5000904D0020884D0020F19C0200000300502E
:109E600076DF70477ADF70477CDF70477FDF7047AF
:109E70008FDF704790DF7047B0DF7047B1DF70470A
:109E800066DF70477047FDF7C0BB000008B50548A6
:109E9000032100F0BBFC18B1BDE80840FDF7B5BBDD
:109EA00008BD00BF9C4D00201FB50388232B5BD04D
:109EB0001BD8112B43D006D8012B65D0102B37D0DF
:109EC00005B05DF804FB132B40D0212BF8D1002303
:109ED00080888DF8003069468DF80130FFF7C8FFA3
:109EE0000028EDD0FDF791FBEAE7522B44D018D8BB
:109EF0003B2B18D0512BE3D18379002BE0D0827B10
:109F0000043A022ADCD8022B18BF01238DF8003056
:109F100069464FF4C1738088ADF80430FFF7ACFF99
:109F2000DEE7562BCCD113218088FFF799FF14E090
:109F3000184B01221A708288174B1A80C0E7154B04
:109F400000221A70144B4FF6FF72F6E712480023F6
:109F500000881A468521FFF789FF0028B0D005B098
:109F60005DF804EBFDF751BB002269468088CDE91E
:109F70000022FFF77FFFB3E7074800231A46194680
:109F80000088FFF77BFFE8E700218088FFF778FF74
:109F9000E3E700BF08520020F02A002070470000CD
:109FA00010B50A4CA21D211DA01CFDF7F9FA084BA3
:109FB0001B7853B1074B084A1C60084B08481B88A4
:109FC000214601F02FFA074B186010BD10520020F7
:109FD000085200200C520020182B0020F02A0020EC
:109FE000F42A0020984D002008B560B103280ED156
:109FF0000748002240F23331FDF76CFB38B1BDE871
:10A000000840FDF702BBBDE80840FFF73FBF08BDB1
:10A01000D051002008B50849084801F02CF808B1D3
:10A02000FDF7F3FA0548402101F039F818B1BDE811
:10A030000840FDF7EABA08BD9D9F0200F0510020DC
:10A040001FB506220823CDE900234FF080610723C6
:10A05000CDE90213002308481A466946FFF780FE3F
:10A0600008B1FDF7D2FA0548FFF7A0FD0248FDF759
:10A0700027FA05B05DF804FBE0B90200E4B902007C
:10A0800000B5ADB0FDF7F5FA08B1FDF7BEFA4E4ADE
:10A090004E480121FDF7F0FA08B1FDF7B6FAFDF7D9
:10A0A0003DFC08B1FDF7B1FA01F038FA08B1FDF74F
:10A0B000ACFA002301A90120019301F0BFFA08B115
:10A0C000FDF7A3FA01A801F00BFB08B1FDF79DFA1B
:10A0D00011233F498DF8003014226846FFF7C4FE73
:10A0E00008B1FDF792FA0023ADF80830A023ADF8CF
:10A0F00004304FF41673ADF8063001A84FF4C8735E
:10A10000ADF80A30FFF7AEFE08B1FDF77EFAFFF7B3
:10A1100081FF304B3048019301A901F009F908B1E2
:10A12000FDF773FAAC22002101A801F07AFB0223AB
:10A130008DF8043005238DF8073001234021ADF858
:10A1400050308DF8803044F25063CDE92313234A18
:10A15000234B2448159201A92A9300F0E2FA08B192
:10A16000FDF753FA1F48012100F0D8FA1822002108
:10A1700001A801F056FB4FF4F0434FF4A052CDE993
:10A18000022303238DF8103001238DF8143001A829
:10A19000154B079300F07EFD08B1FDF736FA134822
:10A1A000002101F0D1FAFFF74BFF114A136943F088
:10A1B000040313610F4B01221A70FEF76DFA0F2092
:10A1C000FDF723FAFBE700BFA19F0200DCB9020004
:10A1D000C6B90200859E0200F42A0020EC2A002065
:10A1E000E99F02009C4D0020879E02008D9E020088
:10A1F00000ED00E0185200206DDF704779DF7047F6
:10A200007DDF704764DF70472DE9F04F85B0002592
:10A210000E9CBDF83CB0B4F800A0019107469046F2
:10A220001E46A9463A884A450DDC45B12388013BC4
:10A23000A3EB0A039BB2FF2B3AD806F80A300020A2
:10A2400005B0BDE8F08F7A6852F82900039000222B
:10A250000DF10B0103A8FFF7D5FF0028F0D19DF801
:10A260000B20424521D12288002D14BF002002205E
:10A2700002EB0801014459451ADC3DB9013292B2A2
:10A28000019B2280B35422880132228022880DF162
:10A290000B01324403A8FFF7B5FF0028D0D1218875
:10A2A0009DF80B200A442280012509F10109B9E734
:10A2B0000C20C5E72DE9F341089FBDF82480154621
:10A2C000CDE90078022204461E46FFF79DFF50B9F3
:10A2D0003346102229462046CDE9087802B0BDE871
:10A2E000F041FFF791BF02B0BDE8F0812DE9F04FDA
:10A2F00000231788138090F82D3085B006460D4650
:10A3000014465BB3082F01D80C2028E102A8FFF700
:10A3100073FF002840F023812388DDF8091008220C
:10A32000EA54238801339BB21B222380EA542388FA
:10A3300001339BB2EA182380E950BDF80D309380B9
:10A3400023889DF8082006339BB212F0FE0218BF46
:10A3500001222380EA54238801332380B378FBB1A0
:10A3600023880433BB42CFD802A8FFF747FF002859
:10A3700040F0F58023880322EA54238801339BB2FE
:10A3800019222380EA542388BDF8082001339BB2A8
:10A39000E9182380EA54120A4A7023880233238082
:10A3A000F2789AB12388D91CB942ADD80221E95478
:10A3B000238801339BB201212380E95423880B4475
:10A3C0009BB22380EA5423880B4423807268AAB18D
:10A3D0002388D91CB94297D8022192F90020E95468
:10A3E000238801339BB20A212380E9542388013357
:10A3F0009BB22380EA542388013323803389002BC6
:10A4000040F0A180338A5BB1CDE900472B4607229B
:10A41000032106F11000FFF74DFF002840F09F8058
:10A42000338B5BB1CDE900472B461522142106F191
:10A430001800FFF73FFF002840F09180326A002AA1
:10A4400040F09080D6F82480B8F1000F30D0B8F8F2
:10A4500004302188981C8A1C0244BA423FF654AF4B
:10A46000FE283FF651AF03336B54238801339BB270
:10A47000FF222380EA54238801339BB22380B8F85B
:10A480000020EA54E918120A4A702088023080B28B
:10A490002080B8F804205AB1D8F8081000296BD0F1
:10A4A000284401F095F92388B8F804201344238048
:10A4B00096F82C30002B40F09880307800284ED051
:10A4C0003388012B58D0228802F1020CBC453FF69C
:10A4D0001BAF012805D17378023313449F42FFF468
:10A4E00013AF023FBF1ABFB202A905EB0C00ADF8D3
:10A4F0000870FFF785FE90BB3178BDF8083002295F
:10A5000000F0B98072789A4202D39F4280F0B18005
:10A51000012940F0B280974293B2C0F0AE80ADF80E
:10A5200008300821BDF80830FE2B3FF6EDAE22883A
:10A530000133AB542288013292B22280A95422887E
:10A54000134423800BE0CDE900472B46062202216D
:10A5500006F10800FFF7AEFE00283FF453AF05B048
:10A56000BDE8F08FB4F800C00CF10603BB423FF623
:10A57000CBAE1188052901D80720F0E76FF4486EAB
:10A5800001EB0E039BB24FF27D3E7345F4D9538825
:10A59000052BF1D96FF44860181880B27045EBD9DB
:10A5A0004FF6FF70814201D09942E5D8052305F8A6
:10A5B0000C30238801339BB212212380E954238875
:10A5C00001339BB223801188E954E818090A4170CD
:10A5D000238802339BB223805288EA54E918120A76
:10A5E0004A702388023323802CE7B36A002BC3D040
:10A5F0004FF000084FF00C0A4FF0160BB16A5FFAEB
:10A6000088F20AFB02F201EB0209B9F80430981C47
:10A61000FE283FF679AE208803332B54238801337C
:10A620009BB2238005F803B0238801339BB22380BB
:10A630008A5AEA54E918120A4A702088023080B215
:10A640002080B9F804205AB1D9F80810002993D015
:10A65000284401F0BDF82388B9F80420134423806E
:10A6600096F82C2008F101085FFA88F39A42C5D8C1
:10A6700023E7092156E79F42FBD2ADF8087050E767
:10A6800030B5C8B1F2B10024651C8D4206DA1588D8
:10A69000A54212D805196D789D420ED1A14211D95B
:10A6A000005D48B1013880B230B10234A3B210FA73
:10A6B00084F4A14206DB138030BD055D01352C44D6
:10A6C000A4B2E1E70020F7E713B513460022ADF886
:10A6D00006200DF106020446FFF7D2FF10B1BDF8C7
:10A6E0000630E01802B010BD72DF704773DF7047AC
:10A6F00038B5012204460D46B0F81414D0F8100401
:10A70000FFF7E2FF00B1057004F13C0204F582613D
:10A7100004F15400BDE83840FFF7E6BF80F8301080
:10A720007047F8B504460F4600296BD0002869D061
:10A7300091F87A301BB191F89830002B64D14FF02A
:10A74000000C84F802C007F178060FCE251D0FC556
:10A750000FCE0FC596E8070085E8070084F830C0E3
:10A76000D7F8A4306363D7F8A830A36304F58262F6
:10A770004FF6FF73C4F826C4A4F82434C4F8202488
:10A78000C4F829C422780AB984F8543094F82430E3
:10A79000002B14BFEE231F2304F15501C4F810143D
:10A7A000A4F8143404F214423846FFF79FFD40BB6E
:10A7B00094F82430002B14BFEE231F2304F2312120
:10A7C000C4F81814A4F81C3404F21C4207F13C002D
:10A7D000FFF78CFDA8B9A369A4F848304FF4807343
:10A7E0000125A4F8503063692064014684F83C5088
:10A7F000636404F13C0204F15400FFF775FF00B9F3
:10A800002570F8BD0E20FCE70720FAE7F8B50678BA
:10A8100004460D46002E00F006810023C0F82634C1
:10A82000C0F82934C388817000F226470BB1012992
:10A8300003D0E37943B1022D06D1636BABB10122A2
:10A8400084F82D240820984704F2274304F22D4170
:10A8500013F8012B12B99942FAD116466B1E032B3D
:10A8600053D8DFE803F0050B0F1284F82D34EBE723
:10A87000A3791BB194F8243003B95EB9E3790BB125
:10A88000002E44D1237A002B43D1637A002B0CBFD6
:10A8900000250425636BA570002B3CD0033D012DE2
:10A8A00039D86279002A36D094F82E249ABB84F8DD
:10A8B0003024012284F82F240720984704F13C0516
:10A8C00018220021284600F0ACFFE26A0123511E45
:10A8D000994284F83C3001D9042A00D1D3B284F8DB
:10A8E000513094F8243043B1A26A511E012902D993
:10A8F000042A18BF012284F85220A278042A1CD806
:10A90000DFE802F0780D23365A000025C2E7022561
:10A91000C0E70325BEE7002384F82F34CEE70123E8
:10A9200084F831300023C4E91073C4F820340223C2
:10A9300084F83C308023A4F84830A378002B5DD104
:10A94000636B002B6BD1002068E0002B14BF072342
:10A95000032384F83C302369A4F848300023022202
:10A96000C4F82034E36884F8312027646364E4E7A2
:10A9700062696264A269A4F8482013B1062384F8CE
:10A980003C306379B3B194F82E349BB994F83034E9
:10A9900083B1022384F8503004212046FFF7A8FE3B
:10A9A0000028CAD1052384F8313004F58263C4F845
:10A9B0002034C2E70323F6E7E2696264226AA4F85E
:10A9C000482013B1062384F83C30637983B194F8AE
:10A9D0002E346BB994F8303453B1022384F85030DC
:10A9E00004212046FFF784FE0028A6D10623DAE7DB
:10A9F0000423D8E7002384F831309EE7D4F82014EC
:10AA00002A4604F15400FFF76FFE38B994F830106D
:10AA100094F85400FFF76AFE002891D0F8BD94F82E
:10AA2000310098478FE70820F8E70388112B10B50D
:10AA30000C460AD0262B1FD0102B05D1C37B012B2F
:10AA400002D18388A1F8243410BD0022838881F8C4
:10AA50002E24B1F824249A42F6D10B79002BF3D19D
:10AA600001212046FFF7D2FE0028EDD0A36B002B7A
:10AA7000EAD0BDE810401847037A013B012BE3D828
:10AA8000897805230131B1FBF3F303EB8303C91A82
:10AA9000C9B2E6E775DF704776DF70477ADF704747
:10AAA0007BDF7047034B1A8882420CBF1846002098
:10AAB000704700BF38520020024B9B6903B1184712
:10AAC000704700BF1C52002073B585B22846FFF7BF
:10AAD000E9FF044638B3174E027A337B9A420CD210
:10AAE00000F10A012846FFF7D5FFF0B111281AD06E
:10AAF00002B0BDE87040FFF7DFBF00230372337C74
:10AB000043B13B212846FFF7C7FF30F0080301D0CF
:10AB1000FFF7D2FF736933B100228DF80420ADF83E
:10AB2000065001A8984702B070BD237A0133237202
:10AB3000F9E700BF1C52002037B50B46497A0F4A8F
:10AB400079B9D2E901141D7A0246002D18BF2146B9
:10AB50005868FCF7BFFD78B103B0BDE83040FFF79F
:10AB6000ABBF00211972536933B10122ADF8060061
:10AB70008DF8042001A8984703B030BD1C52002076
:10AB80004B8802889A4212D842889A420FD3808812
:10AB90008B8840F2F311884294BF021A421A9A42FB
:10ABA00005D80844984234BF002001207047002097
:10ABB000704700000388122B70B5014659D004D8A5
:10ABC000102B1ED0112B44D070BD502BFCD12F4B1D
:10ABD000C288DB899A42F7D1038A022BF4D1868896
:10ABE0003046FFF75FFF05460028EDD001F1120067
:10ABF00000F07FF938BB6868FCF7BCFD0028E3D0A3
:10AC000009E0C37B012BDFD14FF6FF70FFF74AFF4E
:10AC1000054620B90420BDE87040FFF74DBF1C4A2F
:10AC20008E880680002303721368C0F80A305368C8
:10AC3000C0F80E3010310A30FFF7A2FF134B6872D4
:10AC4000DB89002BC0D129463046BDE87040FFF7B4
:10AC500073BF8088FFF726FF04460028B4D0406801
:10AC6000FCF788FD08B1FFF727FF4FF6FF7323803D
:10AC7000AAE786883046FFF715FF05460028A3D0CF
:10AC800008310A30FFF77CFF6872DCE71C520020B5
:10AC90004C520020F8B5064648B305460FCD154F77
:10ACA0003C460FC495E8070084E807003068124C62
:10ACB0003C60B0B1FFF7F2FEC0B9326813682360A0
:10ACC000536863600D480E4A4FF6FF7303800D4BC7
:10ACD00040F8043F0021FCF7CFFC002818BF0320F8
:10ACE00004E02046FFF7DCFE0028EBD0F8BD0E2084
:10ACF000FCE700BF1C5200204C52002038520020BC
:10AD0000C9AA0200545200200AB1FCF7D3BDFCF7D7
:10AD1000DABD73B50191019C06466CB100252C4645
:10AD2000294601A8FCF7D9FD18B106EB440301340C
:10AD30009D800135142DF3D13046346002B070BDD2
:10AD40002DE9F04703888488103B8CB005460A2B18
:10AD500021D8DFE803F006402020202020202065B5
:10AD60004700DFF8E880D8F80830DB430093D8F8D4
:10AD700004106846FCF7C6FD009901A8FFF7C9FF5B
:10AD80000DF108090027019B9F4207D3132C12D90C
:10AD90000420FCF73AFC0CB0BDE8F08739F802ABB0
:10ADA00000260136514608EB8600FCF78CFD1E2E6E
:10ADB000F7D10137E7E71F482146FCF77BFD1E4826
:10ADC0002146FCF777FDEB7B022BE4D11B482146A3
:10ADD000FCF770FDDFE7174821460CB0BDE8F047EF
:10ADE000FCF771BD027A16483F2A4FEA1215214638
:10ADF00094BF00220122FFF787FF022D94BF00229B
:10AE0000012210482146FFF77FFF012D0E4894BF15
:10AE10000022012221460CB0BDE8F047FFF774BFC5
:10AE2000037A002BB7D1427A0548C2F3C00221460B
:10AE3000F1E700BF7C5200207852002080520020B1
:10AE40008C5200208852002084520020745200202E
:10AE50001328014602D80248FCF73FBD0020704786
:10AE60007852002010B50446FFF7F2FF002814BF07
:10AE70002046142010BD70B50546164608460AB98E
:10AE80000E2070BD00231360002DF9D02B68002B1D
:10AE9000F6D0EB8813F003040ED1FFF7E3FFC0B246
:10AEA00014280BD02B7983420AD9EA882B6800FB3F
:10AEB000023030602046E4E70720E2E70520E0E7C3
:10AEC0000420DEE7AADF7047002301380B70042856
:10AED00006D8DFE800F00306080A0C0011230B7007
:10AEE00070472123FBE73123F9E71223F7E72223F9
:10AEF000F5E7008800F001007047F0B58B7891B05D
:10AF00000C46012B38BF012300278DF80E30054673
:10AF10000B88607CADF80C306946ADF800708DF898
:10AF20000270FFF7D1FFA07C0DF10101FFF7CCFF0C
:10AF30001646237BE27B217D43EAC203227C43EA5F
:10AF400002139DF80220B94222F0190203F01903FE
:10AF500014BF02210121134361F342031C2239462D
:10AF600009A88DF8023000F05CFC637B13F0300F11
:10AF700014D00DF10901E07CADF808708DF80A706D
:10AF8000FFF7A2FF11238DF808309DF80A30012148
:10AF900002AA61F342038DF80A300E92637B8DF8AA
:10AFA0002430A37B8DF825300023CDE906330893A8
:10AFB00003AB0493A388ADF81C30A368CDF814D07C
:10AFC0001BB1E288ADF818200893A36973B301A9F7
:10AFD0000022ADF804208A701A88ADF82C205A8817
:10AFE000ADF82E205A680D91187B0A92FFF76CFF7E
:10AFF000A3690DF10501587BFFF766FFA3699A7AF3
:10B00000197A41EAC201DA7A9B7B41EA02119DF882
:10B010000620002B01F0190122F0190214BF0223AF
:10B020000123114363F342018DF80610E36903B174
:10B030000C93334604AA09A92846FFF743FF11B031
:10B04000F0BD90DF7047A5DF7047B5DF70471FB5D3
:10B050000023ADF80810ADF80A106A4602A9ADF851
:10B060000C30ADF80E300093ADF80430FFF7E9FF77
:10B0700005B05DF804FB80B14FF0F71303601B23AC
:10B080000371F723C3801723038141F61B3200238A
:10B09000016143818281184670470E20704730B1AC
:10B0A000A1F11703E02B04D80180002070470E2087
:10B0B00070470720704713B5034680880C46A0B937
:10B0C0001A88242A7DD012D8112A56D0232A00F0BB
:10B0D0008880102A2ED0A37A3BB1E1880020FFF7A8
:10B0E000B2FF10B94FF48073638102B010BD3A2AE9
:10B0F0004CD0552AEFD1DB88C988A072172B38BFF6
:10B1000017238B4228BF0B462381FFF79EFFE27A6D
:10B11000002AE0D12369002BDDD040F67721ADF87D
:10B1200002202289ADF80010ADF8042069462046BF
:10B130009847D0E7DB7B0A790A73012B13D0022BE7
:10B1400014D0E18823898B4205D20020FFF77BFFD2
:10B1500070B90123E372217B637B8B42BBD2002059
:10B16000FFF775FFB7E70B88E380EAE74B88FBE75B
:10B17000112804BF0123A372EDE7F723CB80172327
:10B180000B8141F61B3348818B81A4E75B89CA8818
:10B19000934228BF1346172B0A6938BF17230B8128
:10B1A00062B1C97A51B140F67721ADF80010ADF81F
:10B1B0000200ADF8043069462046904700236381C1
:10B1C00089E71A7A0B694A73002B84D04DF67A21ED
:10B1D0008DF80500ADF80010ADF802008DF80420E0
:10B1E000A4E7197A237B994228BF1946B8E7A8DF5C
:10B1F0007047ADDF7047AEDF704762DF7047F0B574
:10B2000005468BB00C4600295FD000285DD003882E
:10B21000502B35D0572B6CD0102B56D181886069BC
:10B22000002601AA0196FFF726FE02232189A8889D
:10B23000ADF80A6002AACDF80CD0ADF80830FFF7DF
:10B24000D8FF002841D1A369002B3ED00398FFF717
:10B2500050FE002839D0019E0EB101233370182210
:10B26000002104A800F0DDFA02238DF81030AB882D
:10B27000ADF81830A3690594079604A8984724E010
:10B280008188606902AAFFF7F6FD1822002104A850
:10B2900000F0C7FAAB882189ADF81830EB88029A24
:10B2A00005949942079217D12E8A022E14D162B1C9
:10B2B00005F11200FFF71DFE029B40B101221A703A
:10B2C0008DF81060A369002BD7D10BB0F0BD1870BA
:10B2D00003238DF81030F5E7A2899A42F5D1A369CE
:10B2E000002BF2D005F1120208922A8AADF8242030
:10B2F000C3E78188606902AAFFF7BDFD0146002807
:10B30000E3D1029F3B78002BDFD0A669002EDCD072
:10B31000182204A800F085FA01238DF81030AB88BC
:10B320000594ADF81830079704A8B047CDE70000A2
:10B33000F0B53A4B8FB002AD04460A4603F1100C4B
:10B340002F46186859682E4603C6083363453546AC
:10B35000F7D1002C5FD0002A5DD01368A36121468D
:10B360003846FFF74AFF002853D12246012512F83C
:10B37000023B8DF8063001A92846ADF80450FFF7CE
:10B3800036FF002845D10146202206A800F049FAE0
:10B3900022460223ADF8183012F80C3B8DF81A3013
:10B3A000BDF824301E4E6088079623F44F6323F0C7
:10B3B0000F0343F440632B4306A9ADF824308DF806
:10B3C00029508DF82A50FFF798FD10BB0146202226
:10B3D00006A800F026FA22460323ADF8183012F82A
:10B3E000043B8DF81A30BDF824306088079623F4AA
:10B3F000875323F01F0343F480532B43ADF82430CD
:10B4000006A940F201138DF82950ADF82A30FFF754
:10B4100074FD0FB0F0BD0E20FBE700BFF0B90200D5
:10B42000F4000100F0B50F4687B016461C460546ED
:10B4300010B3406901AA1946FFF71DFDD0B94FF6B8
:10B44000FF739C421AD0019BC3B11B78C3B13388F0
:10B45000F42B17D8AB88CDF80B008DF80F00ADF8A2
:10B46000083002A901232046CDE904678DF80A308F
:10B47000FFF7C1FE07B0F0BD0E20FBE70520F9E79E
:10B480000820F7E70720F5E710DF704713B50446FB
:10B4900009496846FCF758FA019808B902B010BD8E
:10B4A000D0E900212046904718B16846FCF756FACB
:10B4B000F2E71120F2E700BF04BA020013B5044618
:10B4C00007496846FCF740FA019B0BB902B010BD72
:10B4D0002046D3E9002190476846FCF73FFAF3E79E
:10B4E0001CBA02000B4991F816335A09EC23134198
:10B4F000DB0706D5084B9A683AB94FF480030B6016
:10B50000704742F20200FCF780B81A6842F48002E9
:10B510001A60704700E100E0202B0020F7B5194FBA
:10B520003C7864BB184E012520463570FFF7AEFF0E
:10B53000112821D02046FFF7C1FF144B8DF803409E
:10B54000186801900DF10300FCF744F9104901A8B7
:10B55000FFF79AFF0446B0FA80F0400938709DF872
:10B560000300FCF75BF93CB90A4B34701C70FFF721
:10B57000B9FF2846FFF7A2FF204603B0F0BD08241C
:10B58000FAE700BFF1520020F052002000BA02009A
:10B5900025760200F2520020014B1878704700BF58
:10B5A000F152002007B508496846FCF7CDF9019B28
:10B5B00013B903B05DF804FBD3E900209047684657
:10B5C000FCF7CCF9F3E700BF10BA020060DF704768
:10B5D00069DF704761DF704730B5134DADF5017D10
:10B5E0004FF4FA740DF1020103A8ADF80240FFF721
:10B5F000F1FF70B9294601A8FCF7A6F9029B002BC0
:10B60000F0D003A8D3E90021904701A8FCF7A6F9E0
:10B61000F4E7052805D00DF5017DBDE83040FBF7C6
:10B62000F4BF0DF5017D30BD28BA0200024B1B7836
:10B630000BB1FFF7D1BF7047F3520020F0B50746BA
:10B6400085B00D46002947D00024244A0A60CDE980
:10B650000144012606238DF8040001A92020ADF83D
:10B66000083003948DF80660FFF7B2FF2A68039450
:10B6700001A94020CDE901448DF80560FFF7A8FF3E
:10B68000F7232A68039401A92320CDE90144ADF8EA
:10B6900006308DF80470FFF79BFF2A68039401A918
:10B6A0003046CDE901448DF80460FFF791FF4FF477
:10B6B000B0632A68019301A9A120CDE90244FFF7F4
:10B6C00087FF2A68039401A9A020CDE90144FFF770
:10B6D0007FFF204605B0F0BD0E20FBE7E82A0020E2
:10B6E00008B5FFF773FF10B9014B01221A7008BDAE
:10B6F000F352002008B5064B1B6803B19847FFF7CB
:10B7000051FF4FF0FF310120FDF766FAF7E700BF68
:10B71000F852002007B500230193094B01A91868CE
:10B72000FDF78EFA019B43B1064B4FF080525A60F1
:10B7300040BFBFF34F8FBFF36F8F03B05DF804FBC3
:10B74000F452002000ED00E007B50C4A10600C4AEE
:10B75000019202220B4600920A490B484FF4807274
:10B76000FCF7C2FE012805D0042003B05DF804EB0D
:10B77000FBF74BBF03B05DF804FB00BFF85200209D
:10B78000F452002034BA0200F5B602004BDF7047D5
:10B790001FB50E4C01A8FFF7F9FF70B9214602A8AA
:10B7A000FCF7D2F8039B002BF4D00198D3E90021D9
:10B7B000904702A8FCF7D2F8F4E7052804D004B0BB
:10B7C000BDE81040FBF721BF04B010BD38BA02003D
:10B7D000844640EA010313F0030F18D18446202A5F
:10B7E0000BD32DE9F007B1E8F807A0E8F807A2F1BC
:10B7F0002002202AF7D2BDE8F007042A07D351F827
:10B80000043B40F8043BA2F10402042AF7D2002AC8
:10B8100005D011F8013B00F8013B013AF9D160462F
:10B8200070478446002A2DD010F0030F04D000F892
:10B83000011B013A26D0F7E7C9B241EA012141EAEA
:10B840000141202A12D3A2F120022DE9F0030B4678
:10B850000C460D460E460F4688468946A0E8FA0378
:10B86000203AFBD2BDE8F00320320BD0042A05D3E6
:10B8700040F8041B043A05D0042AF9D200F8011B51
:08B88000013AFBD1604670475C
:10B8880081900200000000001792020000000000F2
:10B8980041AD0200000000002BAA02009C4D0020D0
:10B8A800B7B00200F0510020B5AB02000000000064
:10B8B800FFB10200F42A0020A99E02000000000047
:10B8C80085910200000000004D9202000000000077
:10B8D8002DB602000000000091B702000000000031
:10B8E8004572726F7220656E206C61206573637299
:10B8F80069747572612E200D0A004572726F72208C
:10B90800656E206C61206C6563747572612E0D0A1A
:10B9180000496E696369616C697A616369C3B36E72
:10B9280020636F7272656374612064656C2073654F
:10B938006E736F722073687434782E200D0A004578
:10B9480072726F7220656E206C6120696E6963691E
:10B95800616C697A616369C3B36E2064656C207336
:10B96800656E736F722073687434782E200D0A0028
:10B9780000000000000000000338FDD870472000D8
:10B9880098B8020098B80200040000000000000007
:10B99800010101000000000049444C4500546D724B
:10B9A8005100546D7220537663000000859A02009E
:10B9B800959A0200000000000338FDD870474E6FCA
:10B9C800726469635F555342445F424C455F554119
:10B9D80052540000D0510020000000000030004008
:10B9E80000000000000000009ECADC240EE5A9E06B
:10B9F80093F3A3B50000406E01000007C8B8020029
:10BA0800C8B8020008000000D8B80200E8B8020070
:10BA180008000000C8B80200D8B8020008000000FA
:10BA280098B80200C8B8020008000000424C45005F
:0CBA380088B8020098B802000800000066
:10BA44000090D00301000200FFFF0000000000008E
:10BA540000000000000000000000000000000000E2
:10BA6400102B0020000000000452002001000400FC
:04BA740008000000C6
:0400000320007375F1
:00000001FF
